{"contracts/DepositVault.sol":{"DepositVault":{"abi":[{"inputs":[{"internalType":"address","name":"token_","type":"address"}],"stateMutability":"nonpayable","type":"constructor"},{"inputs":[],"name":"InsufficientHeld","type":"error"},{"inputs":[],"name":"NotOperator","type":"error"},{"inputs":[{"internalType":"address","name":"owner","type":"address"}],"name":"OwnableInvalidOwner","type":"error"},{"inputs":[{"internalType":"address","name":"account","type":"address"}],"name":"OwnableUnauthorizedAccount","type":"error"},{"inputs":[],"name":"ZeroAddress","type":"error"},{"anonymous":false,"inputs":[{"indexed":true,"internalType":"address","name":"payer","type":"address"},{"indexed":true,"internalType":"address","name":"to","type":"address"},{"indexed":false,"internalType":"uint256","name":"amount","type":"uint256"}],"name":"DepositCaptured","type":"event"},{"anonymous":false,"inputs":[{"indexed":true,"internalType":"address","name":"payer","type":"address"},{"indexed":false,"internalType":"uint256","name":"amount","type":"uint256"}],"name":"DepositHeld","type":"event"},{"anonymous":false,"inputs":[{"indexed":true,"internalType":"address","name":"payer","type":"address"},{"indexed":false,"internalType":"uint256","name":"amount","type":"uint256"}],"name":"DepositReleased","type":"event"},{"anonymous":false,"inputs":[{"indexed":true,"internalType":"address","name":"operator","type":"address"}],"name":"OperatorUpdated","type":"event"},{"anonymous":false,"inputs":[{"indexed":true,"internalType":"address","name":"previousOwner","type":"address"},{"indexed":true,"internalType":"address","name":"newOwner","type":"address"}],"name":"OwnershipTransferred","type":"event"},{"inputs":[{"internalType":"address","name":"payer","type":"address"},{"internalType":"address","name":"to","type":"address"},{"internalType":"uint256","name":"amount","type":"uint256"}],"name":"captureDeposit","outputs":[],"stateMutability":"nonpayable","type":"function"},{"inputs":[{"internalType":"address","name":"","type":"address"}],"name":"heldBalance","outputs":[{"internalType":"uint256","name":"","type":"uint256"}],"stateMutability":"view","type":"function"},{"inputs":[{"internalType":"uint256","name":"amount","type":"uint256"}],"name":"holdDeposit","outputs":[],"stateMutability":"nonpayable","type":"function"},{"inputs":[],"name":"operator","outputs":[{"internalType":"address","name":"","type":"address"}],"stateMutability":"view","type":"function"},{"inputs":[],"name":"owner","outputs":[{"internalType":"address","name":"","type":"address"}],"stateMutability":"view","type":"function"},{"inputs":[{"internalType":"address","name":"payer","type":"address"},{"internalType":"uint256","name":"amount","type":"uint256"}],"name":"releaseDeposit","outputs":[],"stateMutability":"nonpayable","type":"function"},{"inputs":[],"name":"renounceOwnership","outputs":[],"stateMutability":"nonpayable","type":"function"},{"inputs":[{"internalType":"address","name":"operator_","type":"address"}],"name":"setOperator","outputs":[],"stateMutability":"nonpayable","type":"function"},{"inputs":[],"name":"token","outputs":[{"internalType":"contract IERC20","name":"","type":"address"}],"stateMutability":"view","type":"function"},{"inputs":[{"internalType":"address","name":"newOwner","type":"address"}],"name":"transferOwnership","outputs":[],"stateMutability":"nonpayable","type":"function"}],"evm":{"bytecode":{"linkReferences":{},"object":"60a060405234801561000f575f80fd5b506040516119fc3803806119fc8339818101604052810190610031919061030f565b335f73ffffffffffffffffffffffffffffffffffffffff168173ffffffffffffffffffffffffffffffffffffffff16036100a2575f6040517f1e4fbdf70000000000000000000000000000000000000000000000000000000081526004016100999190610349565b60405180910390fd5b6100b1816101ed60201b60201c565b506100cc67f358fab564b35b8f60c01b6102ae60201b60201c565b6100e6674b6ca6c04924988660c01b6102ae60201b60201c565b61010067438acb166b2b815a60c01b6102ae60201b60201c565b5f73ffffffffffffffffffffffffffffffffffffffff168173ffffffffffffffffffffffffffffffffffffffff160361017f5761014d67cc79512553f55cca60c01b6102ae60201b60201c565b6040517fd92e233d00000000000000000000000000000000000000000000000000000000815260040160405180910390fd5b6101996770a3f1f7bac6063460c01b6102ae60201b60201c565b6101b367c58d367a4bf87cfd60c01b6102ae60201b60201c565b8073ffffffffffffffffffffffffffffffffffffffff1660808173ffffffffffffffffffffffffffffffffffffffff168152505050610362565b5f805f9054906101000a900473ffffffffffffffffffffffffffffffffffffffff169050815f806101000a81548173ffffffffffffffffffffffffffffffffffffffff021916908373ffffffffffffffffffffffffffffffffffffffff1602179055508173ffffffffffffffffffffffffffffffffffffffff168173ffffffffffffffffffffffffffffffffffffffff167f8be0079c531659141344cd1fd0a4f28419497f9722a3daafe3b4186f6b6457e060405160405180910390a35050565b50565b5f80fd5b5f73ffffffffffffffffffffffffffffffffffffffff82169050919050565b5f6102de826102b5565b9050919050565b6102ee816102d4565b81146102f8575f80fd5b50565b5f81519050610309816102e5565b92915050565b5f60208284031215610324576103236102b1565b5b5f610331848285016102fb565b91505092915050565b610343816102d4565b82525050565b5f60208201905061035c5f83018461033a565b92915050565b60805161166d61038f5f395f81816104b8015281816108b901528181610d4a0152610ff3015261166d5ff3fe608060405234801561000f575f80fd5b506004361061009c575f3560e01c8063b3ab15fb11610064578063b3ab15fb1461011e578063c100ca5c1461013a578063f10c974f14610156578063f2fde38b14610186578063fc0c546a146101a25761009c565b806341b00807146100a0578063524dd059146100bc578063570ca735146100d8578063715018a6146100f65780638da5cb5b14610100575b5f80fd5b6100ba60048036038101906100b591906111f8565b6101c0565b005b6100d660048036038101906100d19190611248565b610676565b005b6100e0610a5f565b6040516100ed9190611295565b60405180910390f35b6100fe610a84565b005b610108610a97565b6040516101159190611295565b60405180910390f35b610138600480360381019061013391906112ae565b610abe565b005b610154600480360381019061014f91906112d9565b610c79565b005b610170600480360381019061016b91906112ae565b610f58565b60405161017d9190611313565b60405180910390f35b6101a0600480360381019061019b91906112ae565b610f6d565b005b6101aa610ff1565b6040516101b79190611387565b60405180910390f35b6101d467ffda6d37770726f760c01b611015565b6101e86791144aea299c7c4560c01b611015565b6101fc678152e2f097dc42c260c01b611015565b60015f9054906101000a900473ffffffffffffffffffffffffffffffffffffffff1673ffffffffffffffffffffffffffffffffffffffff163373ffffffffffffffffffffffffffffffffffffffff1614610296576102646723507a18c7300f1760c01b611015565b6040517f7c214f0400000000000000000000000000000000000000000000000000000000815260040160405180910390fd5b6102aa67c0736ebcca81e78760c01b611015565b6102be6776d276828056123e60c01b611015565b6102d267f5a26703b47b693160c01b611015565b5f73ffffffffffffffffffffffffffffffffffffffff168273ffffffffffffffffffffffffffffffffffffffff160361034b576103196764f0a9df8efc5f9460c01b611015565b6040517fd92e233d00000000000000000000000000000000000000000000000000000000815260040160405180910390fd5b61035f67c4a992bf4ff0965460c01b611015565b6103736760f151c9fb81a14060c01b611015565b610387677458be9b3873fe5d60c01b611015565b8060025f8573ffffffffffffffffffffffffffffffffffffffff1673ffffffffffffffffffffffffffffffffffffffff1681526020019081526020015f20541015610412576103e067539b19cbbd81947260c01b611015565b6040517f8e875ab100000000000000000000000000000000000000000000000000000000815260040160405180910390fd5b61042667cf5061d875600b0060c01b611015565b61043a679f11dd2d05376a0c60c01b611015565b8060025f8573ffffffffffffffffffffffffffffffffffffffff1673ffffffffffffffffffffffffffffffffffffffff1681526020019081526020015f205f82825461048691906113cd565b925050819055506104a167ba2bda6eb8c2234760c01b611015565b6104b567d9556336e824884160c01b611015565b5f7f000000000000000000000000000000000000000000000000000000000000000073ffffffffffffffffffffffffffffffffffffffff1663a9059cbb84846040518363ffffffff1660e01b8152600401610511929190611400565b6020604051808303815f875af115801561052d573d5f803e3d5ffd5b505050506040513d601f19601f82011682018060405250810190610551919061145c565b9050610567678f86c94bce2dfcc260c01b611015565b61057b67659996f73c2ea6ec60c01b611015565b61058f67e7913304e34d73fb60c01b611015565b806105cf576040517f08c379a00000000000000000000000000000000000000000000000000000000081526004016105c6906114e1565b60405180910390fd5b6105e3676e429f0e10f6487560c01b611015565b6105f76757b48ea3e3ff156060c01b611015565b61060b6702a75a6120dfb88f60c01b611015565b8273ffffffffffffffffffffffffffffffffffffffff168473ffffffffffffffffffffffffffffffffffffffff167ffdc1ec2a5977552caf88c64b5ea5cc47cd4329ee5720f653939da9dfd888d4f0846040516106689190611313565b60405180910390a350505050565b61068a674505c5a6288ea51960c01b611015565b61069e67b2f806d9bfbe90a360c01b611015565b6106b26792aadd9cbf84571860c01b611015565b60015f9054906101000a900473ffffffffffffffffffffffffffffffffffffffff1673ffffffffffffffffffffffffffffffffffffffff163373ffffffffffffffffffffffffffffffffffffffff161461074c5761071a67dbc151884b806a0360c01b611015565b6040517f7c214f0400000000000000000000000000000000000000000000000000000000815260040160405180910390fd5b610760675c637605187420e560c01b611015565b61077467c7e80be9c5f1458960c01b611015565b61078867b0190fd5e0c8407660c01b611015565b8060025f8473ffffffffffffffffffffffffffffffffffffffff1673ffffffffffffffffffffffffffffffffffffffff1681526020019081526020015f20541015610813576107e16727bbe6801815572760c01b611015565b6040517f8e875ab100000000000000000000000000000000000000000000000000000000815260040160405180910390fd5b61082767560cb13c767dce7060c01b611015565b61083b67192b46972db8396060c01b611015565b8060025f8473ffffffffffffffffffffffffffffffffffffffff1673ffffffffffffffffffffffffffffffffffffffff1681526020019081526020015f205f82825461088791906113cd565b925050819055506108a26760c37096955344de60c01b611015565b6108b667761cc71e3750f53f60c01b611015565b5f7f000000000000000000000000000000000000000000000000000000000000000073ffffffffffffffffffffffffffffffffffffffff1663a9059cbb84846040518363ffffffff1660e01b8152600401610912929190611400565b6020604051808303815f875af115801561092e573d5f803e3d5ffd5b505050506040513d601f19601f82011682018060405250810190610952919061145c565b905061096867c73da696d1d78b2360c01b611015565b61097c67c57f83929a46fc2960c01b611015565b610990673679b484c4e00f8960c01b611015565b806109d0576040517f08c379a00000000000000000000000000000000000000000000000000000000081526004016109c7906114e1565b60405180910390fd5b6109e467c338408a270ac9ee60c01b611015565b6109f8679e1bfd74338edfd160c01b611015565b610a0c679d7e3121bc0db1c260c01b611015565b8273ffffffffffffffffffffffffffffffffffffffff167f5b035be76c6224ae570d8d05097177ed728aab6364d39f1ec803b4126fd25fce83604051610a529190611313565b60405180910390a2505050565b60015f9054906101000a900473ffffffffffffffffffffffffffffffffffffffff1681565b610a8c611018565b610a955f61109f565b565b5f805f9054906101000a900473ffffffffffffffffffffffffffffffffffffffff16905090565b610ad2671b245c08d179a4a060c01b611015565b610ada611018565b610aee676110c86a5c192f8f60c01b611015565b610b0267d3569f5953a214af60c01b611015565b610b1667f8ef70ba8e0c5fa260c01b611015565b610b2a678fabc4745953f1ea60c01b611015565b5f73ffffffffffffffffffffffffffffffffffffffff168173ffffffffffffffffffffffffffffffffffffffff1603610ba357610b71679b09c9ee9faea43760c01b611015565b6040517fd92e233d00000000000000000000000000000000000000000000000000000000815260040160405180910390fd5b610bb767420273619a6c42bd60c01b611015565b610bcb67a9615e2f4ca7d7dd60c01b611015565b8060015f6101000a81548173ffffffffffffffffffffffffffffffffffffffff021916908373ffffffffffffffffffffffffffffffffffffffff160217905550610c1f675edf9586fd8c750c60c01b611015565b610c33673e997872b771881e60c01b611015565b8073ffffffffffffffffffffffffffffffffffffffff167fb3b3f5f64ab192e4b5fefde1f51ce9733bbdcf831951543b325aebd49cc27ec460405160405180910390a250565b610c8d67b8f5e11b7c4b1ce960c01b611015565b610ca16704c4f4f4245840b060c01b611015565b610cb5673023d2b96206057e60c01b611015565b610cc9677aebc11d70a36f5f60c01b611015565b5f8111610d0b576040517f08c379a0000000000000000000000000000000000000000000000000000000008152600401610d0290611549565b60405180910390fd5b610d1f67f8ac4159a154b75360c01b611015565b610d33675974da5ec22f675660c01b611015565b610d4767b0c29c68378c2e4c60c01b611015565b5f7f000000000000000000000000000000000000000000000000000000000000000073ffffffffffffffffffffffffffffffffffffffff166323b872dd3330856040518463ffffffff1660e01b8152600401610da593929190611567565b6020604051808303815f875af1158015610dc1573d5f803e3d5ffd5b505050506040513d601f19601f82011682018060405250810190610de5919061145c565b9050610dfb674773d5cadf9c96c160c01b611015565b610e0f67c5a46a63412051e360c01b611015565b610e2367c52dc89d2022fb5660c01b611015565b80610e63576040517f08c379a0000000000000000000000000000000000000000000000000000000008152600401610e5a906115e6565b60405180910390fd5b610e776757f18205a64a894060c01b611015565b610e8b674bc9614b8cdae21e60c01b611015565b8160025f3373ffffffffffffffffffffffffffffffffffffffff1673ffffffffffffffffffffffffffffffffffffffff1681526020019081526020015f205f828254610ed79190611604565b92505081905550610ef267a826a0c19515055e60c01b611015565b610f06675884a93f4c7c2ada60c01b611015565b3373ffffffffffffffffffffffffffffffffffffffff167fb32b4347bbdc9ba4a012d47d705293e27129616282349eddf6807e1d4a40e46483604051610f4c9190611313565b60405180910390a25050565b6002602052805f5260405f205f915090505481565b610f75611018565b5f73ffffffffffffffffffffffffffffffffffffffff168173ffffffffffffffffffffffffffffffffffffffff1603610fe5575f6040517f1e4fbdf7000000000000000000000000000000000000000000000000000000008152600401610fdc9190611295565b60405180910390fd5b610fee8161109f565b50565b7f000000000000000000000000000000000000000000000000000000000000000081565b50565b611020611160565b73ffffffffffffffffffffffffffffffffffffffff1661103e610a97565b73ffffffffffffffffffffffffffffffffffffffff161461109d57611061611160565b6040517f118cdaa70000000000000000000000000000000000000000000000000000000081526004016110949190611295565b60405180910390fd5b565b5f805f9054906101000a900473ffffffffffffffffffffffffffffffffffffffff169050815f806101000a81548173ffffffffffffffffffffffffffffffffffffffff021916908373ffffffffffffffffffffffffffffffffffffffff1602179055508173ffffffffffffffffffffffffffffffffffffffff168173ffffffffffffffffffffffffffffffffffffffff167f8be0079c531659141344cd1fd0a4f28419497f9722a3daafe3b4186f6b6457e060405160405180910390a35050565b5f33905090565b5f80fd5b5f73ffffffffffffffffffffffffffffffffffffffff82169050919050565b5f6111948261116b565b9050919050565b6111a48161118a565b81146111ae575f80fd5b50565b5f813590506111bf8161119b565b92915050565b5f819050919050565b6111d7816111c5565b81146111e1575f80fd5b50565b5f813590506111f2816111ce565b92915050565b5f805f6060848603121561120f5761120e611167565b5b5f61121c868287016111b1565b935050602061122d868287016111b1565b925050604061123e868287016111e4565b9150509250925092565b5f806040838503121561125e5761125d611167565b5b5f61126b858286016111b1565b925050602061127c858286016111e4565b9150509250929050565b61128f8161118a565b82525050565b5f6020820190506112a85f830184611286565b92915050565b5f602082840312156112c3576112c2611167565b5b5f6112d0848285016111b1565b91505092915050565b5f602082840312156112ee576112ed611167565b5b5f6112fb848285016111e4565b91505092915050565b61130d816111c5565b82525050565b5f6020820190506113265f830184611304565b92915050565b5f819050919050565b5f61134f61134a6113458461116b565b61132c565b61116b565b9050919050565b5f61136082611335565b9050919050565b5f61137182611356565b9050919050565b61138181611367565b82525050565b5f60208201905061139a5f830184611378565b92915050565b7f4e487b71000000000000000000000000000000000000000000000000000000005f52601160045260245ffd5b5f6113d7826111c5565b91506113e2836111c5565b92508282039050818111156113fa576113f96113a0565b5b92915050565b5f6040820190506114135f830185611286565b6114206020830184611304565b9392505050565b5f8115159050919050565b61143b81611427565b8114611445575f80fd5b50565b5f8151905061145681611432565b92915050565b5f6020828403121561147157611470611167565b5b5f61147e84828501611448565b91505092915050565b5f82825260208201905092915050565b7f7472616e73666572206661696c656400000000000000000000000000000000005f82015250565b5f6114cb600f83611487565b91506114d682611497565b602082019050919050565b5f6020820190508181035f8301526114f8816114bf565b9050919050565b7f616d6f756e743d300000000000000000000000000000000000000000000000005f82015250565b5f611533600883611487565b915061153e826114ff565b602082019050919050565b5f6020820190508181035f83015261156081611527565b9050919050565b5f60608201905061157a5f830186611286565b6115876020830185611286565b6115946040830184611304565b949350505050565b7f7472616e7366657246726f6d206661696c6564000000000000000000000000005f82015250565b5f6115d0601383611487565b91506115db8261159c565b602082019050919050565b5f6020820190508181035f8301526115fd816115c4565b9050919050565b5f61160e826111c5565b9150611619836111c5565b9250828201905080821115611631576116306113a0565b5b9291505056fea26469706673582212203d7113a4e5fc69854cebde9c117aab13ee179df020b0de13b7975f3cc880d1cd64736f6c634300081a0033","opcodes":"PUSH1 0xA0 PUSH1 0x40 MSTORE CALLVALUE DUP1 ISZERO PUSH2 0xF JUMPI PUSH0 DUP1 REVERT JUMPDEST POP PUSH1 0x40 MLOAD PUSH2 0x19FC CODESIZE SUB DUP1 PUSH2 0x19FC DUP4 CODECOPY DUP2 DUP2 ADD PUSH1 0x40 MSTORE DUP2 ADD SWAP1 PUSH2 0x31 SWAP2 SWAP1 PUSH2 0x30F JUMP JUMPDEST CALLER PUSH0 PUSH20 0xFFFFFFFFFFFFFFFFFFFFFFFFFFFFFFFFFFFFFFFF AND DUP2 PUSH20 0xFFFFFFFFFFFFFFFFFFFFFFFFFFFFFFFFFFFFFFFF AND SUB PUSH2 0xA2 JUMPI PUSH0 PUSH1 0x40 MLOAD PUSH32 0x1E4FBDF700000000000000000000000000000000000000000000000000000000 DUP2 MSTORE PUSH1 0x4 ADD PUSH2 0x99 SWAP2 SWAP1 PUSH2 0x349 JUMP JUMPDEST PUSH1 0x40 MLOAD DUP1 SWAP2 SUB SWAP1 REVERT JUMPDEST PUSH2 0xB1 DUP2 PUSH2 0x1ED PUSH1 0x20 SHL PUSH1 0x20 SHR JUMP JUMPDEST POP PUSH2 0xCC PUSH8 0xF358FAB564B35B8F PUSH1 0xC0 SHL PUSH2 0x2AE PUSH1 0x20 SHL PUSH1 0x20 SHR JUMP JUMPDEST PUSH2 0xE6 PUSH8 0x4B6CA6C049249886 PUSH1 0xC0 SHL PUSH2 0x2AE PUSH1 0x20 SHL PUSH1 0x20 SHR JUMP JUMPDEST PUSH2 0x100 PUSH8 0x438ACB166B2B815A PUSH1 0xC0 SHL PUSH2 0x2AE PUSH1 0x20 SHL PUSH1 0x20 SHR JUMP JUMPDEST PUSH0 PUSH20 0xFFFFFFFFFFFFFFFFFFFFFFFFFFFFFFFFFFFFFFFF AND DUP2 PUSH20 0xFFFFFFFFFFFFFFFFFFFFFFFFFFFFFFFFFFFFFFFF AND SUB PUSH2 0x17F JUMPI PUSH2 0x14D PUSH8 0xCC79512553F55CCA PUSH1 0xC0 SHL PUSH2 0x2AE PUSH1 0x20 SHL PUSH1 0x20 SHR JUMP JUMPDEST PUSH1 0x40 MLOAD PUSH32 0xD92E233D00000000000000000000000000000000000000000000000000000000 DUP2 MSTORE PUSH1 0x4 ADD PUSH1 0x40 MLOAD DUP1 SWAP2 SUB SWAP1 REVERT JUMPDEST PUSH2 0x199 PUSH8 0x70A3F1F7BAC60634 PUSH1 0xC0 SHL PUSH2 0x2AE PUSH1 0x20 SHL PUSH1 0x20 SHR JUMP JUMPDEST PUSH2 0x1B3 PUSH8 0xC58D367A4BF87CFD PUSH1 0xC0 SHL PUSH2 0x2AE PUSH1 0x20 SHL PUSH1 0x20 SHR JUMP JUMPDEST DUP1 PUSH20 0xFFFFFFFFFFFFFFFFFFFFFFFFFFFFFFFFFFFFFFFF AND PUSH1 0x80 DUP2 PUSH20 0xFFFFFFFFFFFFFFFFFFFFFFFFFFFFFFFFFFFFFFFF AND DUP2 MSTORE POP POP POP PUSH2 0x362 JUMP JUMPDEST PUSH0 DUP1 PUSH0 SWAP1 SLOAD SWAP1 PUSH2 0x100 EXP SWAP1 DIV PUSH20 0xFFFFFFFFFFFFFFFFFFFFFFFFFFFFFFFFFFFFFFFF AND SWAP1 POP DUP2 PUSH0 DUP1 PUSH2 0x100 EXP DUP2 SLOAD DUP2 PUSH20 0xFFFFFFFFFFFFFFFFFFFFFFFFFFFFFFFFFFFFFFFF MUL NOT AND SWAP1 DUP4 PUSH20 0xFFFFFFFFFFFFFFFFFFFFFFFFFFFFFFFFFFFFFFFF AND MUL OR SWAP1 SSTORE POP DUP2 PUSH20 0xFFFFFFFFFFFFFFFFFFFFFFFFFFFFFFFFFFFFFFFF AND DUP2 PUSH20 0xFFFFFFFFFFFFFFFFFFFFFFFFFFFFFFFFFFFFFFFF AND PUSH32 0x8BE0079C531659141344CD1FD0A4F28419497F9722A3DAAFE3B4186F6B6457E0 PUSH1 0x40 MLOAD PUSH1 0x40 MLOAD DUP1 SWAP2 SUB SWAP1 LOG3 POP POP JUMP JUMPDEST POP JUMP JUMPDEST PUSH0 DUP1 REVERT JUMPDEST PUSH0 PUSH20 0xFFFFFFFFFFFFFFFFFFFFFFFFFFFFFFFFFFFFFFFF DUP3 AND SWAP1 POP SWAP2 SWAP1 POP JUMP JUMPDEST PUSH0 PUSH2 0x2DE DUP3 PUSH2 0x2B5 JUMP JUMPDEST SWAP1 POP SWAP2 SWAP1 POP JUMP JUMPDEST PUSH2 0x2EE DUP2 PUSH2 0x2D4 JUMP JUMPDEST DUP2 EQ PUSH2 0x2F8 JUMPI PUSH0 DUP1 REVERT JUMPDEST POP JUMP JUMPDEST PUSH0 DUP2 MLOAD SWAP1 POP PUSH2 0x309 DUP2 PUSH2 0x2E5 JUMP JUMPDEST SWAP3 SWAP2 POP POP JUMP JUMPDEST PUSH0 PUSH1 0x20 DUP3 DUP5 SUB SLT ISZERO PUSH2 0x324 JUMPI PUSH2 0x323 PUSH2 0x2B1 JUMP JUMPDEST JUMPDEST PUSH0 PUSH2 0x331 DUP5 DUP3 DUP6 ADD PUSH2 0x2FB JUMP JUMPDEST SWAP2 POP POP SWAP3 SWAP2 POP POP JUMP JUMPDEST PUSH2 0x343 DUP2 PUSH2 0x2D4 JUMP JUMPDEST DUP3 MSTORE POP POP JUMP JUMPDEST PUSH0 PUSH1 0x20 DUP3 ADD SWAP1 POP PUSH2 0x35C PUSH0 DUP4 ADD DUP5 PUSH2 0x33A JUMP JUMPDEST SWAP3 SWAP2 POP POP JUMP JUMPDEST PUSH1 0x80 MLOAD PUSH2 0x166D PUSH2 0x38F PUSH0 CODECOPY PUSH0 DUP2 DUP2 PUSH2 0x4B8 ADD MSTORE DUP2 DUP2 PUSH2 0x8B9 ADD MSTORE DUP2 DUP2 PUSH2 0xD4A ADD MSTORE PUSH2 0xFF3 ADD MSTORE PUSH2 0x166D PUSH0 RETURN INVALID PUSH1 0x80 PUSH1 0x40 MSTORE CALLVALUE DUP1 ISZERO PUSH2 0xF JUMPI PUSH0 DUP1 REVERT JUMPDEST POP PUSH1 0x4 CALLDATASIZE LT PUSH2 0x9C JUMPI PUSH0 CALLDATALOAD PUSH1 0xE0 SHR DUP1 PUSH4 0xB3AB15FB GT PUSH2 0x64 JUMPI DUP1 PUSH4 0xB3AB15FB EQ PUSH2 0x11E JUMPI DUP1 PUSH4 0xC100CA5C EQ PUSH2 0x13A JUMPI DUP1 PUSH4 0xF10C974F EQ PUSH2 0x156 JUMPI DUP1 PUSH4 0xF2FDE38B EQ PUSH2 0x186 JUMPI DUP1 PUSH4 0xFC0C546A EQ PUSH2 0x1A2 JUMPI PUSH2 0x9C JUMP JUMPDEST DUP1 PUSH4 0x41B00807 EQ PUSH2 0xA0 JUMPI DUP1 PUSH4 0x524DD059 EQ PUSH2 0xBC JUMPI DUP1 PUSH4 0x570CA735 EQ PUSH2 0xD8 JUMPI DUP1 PUSH4 0x715018A6 EQ PUSH2 0xF6 JUMPI DUP1 PUSH4 0x8DA5CB5B EQ PUSH2 0x100 JUMPI JUMPDEST PUSH0 DUP1 REVERT JUMPDEST PUSH2 0xBA PUSH1 0x4 DUP1 CALLDATASIZE SUB DUP2 ADD SWAP1 PUSH2 0xB5 SWAP2 SWAP1 PUSH2 0x11F8 JUMP JUMPDEST PUSH2 0x1C0 JUMP JUMPDEST STOP JUMPDEST PUSH2 0xD6 PUSH1 0x4 DUP1 CALLDATASIZE SUB DUP2 ADD SWAP1 PUSH2 0xD1 SWAP2 SWAP1 PUSH2 0x1248 JUMP JUMPDEST PUSH2 0x676 JUMP JUMPDEST STOP JUMPDEST PUSH2 0xE0 PUSH2 0xA5F JUMP JUMPDEST PUSH1 0x40 MLOAD PUSH2 0xED SWAP2 SWAP1 PUSH2 0x1295 JUMP JUMPDEST PUSH1 0x40 MLOAD DUP1 SWAP2 SUB SWAP1 RETURN JUMPDEST PUSH2 0xFE PUSH2 0xA84 JUMP JUMPDEST STOP JUMPDEST PUSH2 0x108 PUSH2 0xA97 JUMP JUMPDEST PUSH1 0x40 MLOAD PUSH2 0x115 SWAP2 SWAP1 PUSH2 0x1295 JUMP JUMPDEST PUSH1 0x40 MLOAD DUP1 SWAP2 SUB SWAP1 RETURN JUMPDEST PUSH2 0x138 PUSH1 0x4 DUP1 CALLDATASIZE SUB DUP2 ADD SWAP1 PUSH2 0x133 SWAP2 SWAP1 PUSH2 0x12AE JUMP JUMPDEST PUSH2 0xABE JUMP JUMPDEST STOP JUMPDEST PUSH2 0x154 PUSH1 0x4 DUP1 CALLDATASIZE SUB DUP2 ADD SWAP1 PUSH2 0x14F SWAP2 SWAP1 PUSH2 0x12D9 JUMP JUMPDEST PUSH2 0xC79 JUMP JUMPDEST STOP JUMPDEST PUSH2 0x170 PUSH1 0x4 DUP1 CALLDATASIZE SUB DUP2 ADD SWAP1 PUSH2 0x16B SWAP2 SWAP1 PUSH2 0x12AE JUMP JUMPDEST PUSH2 0xF58 JUMP JUMPDEST PUSH1 0x40 MLOAD PUSH2 0x17D SWAP2 SWAP1 PUSH2 0x1313 JUMP JUMPDEST PUSH1 0x40 MLOAD DUP1 SWAP2 SUB SWAP1 RETURN JUMPDEST PUSH2 0x1A0 PUSH1 0x4 DUP1 CALLDATASIZE SUB DUP2 ADD SWAP1 PUSH2 0x19B SWAP2 SWAP1 PUSH2 0x12AE JUMP JUMPDEST PUSH2 0xF6D JUMP JUMPDEST STOP JUMPDEST PUSH2 0x1AA PUSH2 0xFF1 JUMP JUMPDEST PUSH1 0x40 MLOAD PUSH2 0x1B7 SWAP2 SWAP1 PUSH2 0x1387 JUMP JUMPDEST PUSH1 0x40 MLOAD DUP1 SWAP2 SUB SWAP1 RETURN JUMPDEST PUSH2 0x1D4 PUSH8 0xFFDA6D37770726F7 PUSH1 0xC0 SHL PUSH2 0x1015 JUMP JUMPDEST PUSH2 0x1E8 PUSH8 0x91144AEA299C7C45 PUSH1 0xC0 SHL PUSH2 0x1015 JUMP JUMPDEST PUSH2 0x1FC PUSH8 0x8152E2F097DC42C2 PUSH1 0xC0 SHL PUSH2 0x1015 JUMP JUMPDEST PUSH1 0x1 PUSH0 SWAP1 SLOAD SWAP1 PUSH2 0x100 EXP SWAP1 DIV PUSH20 0xFFFFFFFFFFFFFFFFFFFFFFFFFFFFFFFFFFFFFFFF AND PUSH20 0xFFFFFFFFFFFFFFFFFFFFFFFFFFFFFFFFFFFFFFFF AND CALLER PUSH20 0xFFFFFFFFFFFFFFFFFFFFFFFFFFFFFFFFFFFFFFFF AND EQ PUSH2 0x296 JUMPI PUSH2 0x264 PUSH8 0x23507A18C7300F17 PUSH1 0xC0 SHL PUSH2 0x1015 JUMP JUMPDEST PUSH1 0x40 MLOAD PUSH32 0x7C214F0400000000000000000000000000000000000000000000000000000000 DUP2 MSTORE PUSH1 0x4 ADD PUSH1 0x40 MLOAD DUP1 SWAP2 SUB SWAP1 REVERT JUMPDEST PUSH2 0x2AA PUSH8 0xC0736EBCCA81E787 PUSH1 0xC0 SHL PUSH2 0x1015 JUMP JUMPDEST PUSH2 0x2BE PUSH8 0x76D276828056123E PUSH1 0xC0 SHL PUSH2 0x1015 JUMP JUMPDEST PUSH2 0x2D2 PUSH8 0xF5A26703B47B6931 PUSH1 0xC0 SHL PUSH2 0x1015 JUMP JUMPDEST PUSH0 PUSH20 0xFFFFFFFFFFFFFFFFFFFFFFFFFFFFFFFFFFFFFFFF AND DUP3 PUSH20 0xFFFFFFFFFFFFFFFFFFFFFFFFFFFFFFFFFFFFFFFF AND SUB PUSH2 0x34B JUMPI PUSH2 0x319 PUSH8 0x64F0A9DF8EFC5F94 PUSH1 0xC0 SHL PUSH2 0x1015 JUMP JUMPDEST PUSH1 0x40 MLOAD PUSH32 0xD92E233D00000000000000000000000000000000000000000000000000000000 DUP2 MSTORE PUSH1 0x4 ADD PUSH1 0x40 MLOAD DUP1 SWAP2 SUB SWAP1 REVERT JUMPDEST PUSH2 0x35F PUSH8 0xC4A992BF4FF09654 PUSH1 0xC0 SHL PUSH2 0x1015 JUMP JUMPDEST PUSH2 0x373 PUSH8 0x60F151C9FB81A140 PUSH1 0xC0 SHL PUSH2 0x1015 JUMP JUMPDEST PUSH2 0x387 PUSH8 0x7458BE9B3873FE5D PUSH1 0xC0 SHL PUSH2 0x1015 JUMP JUMPDEST DUP1 PUSH1 0x2 PUSH0 DUP6 PUSH20 0xFFFFFFFFFFFFFFFFFFFFFFFFFFFFFFFFFFFFFFFF AND PUSH20 0xFFFFFFFFFFFFFFFFFFFFFFFFFFFFFFFFFFFFFFFF AND DUP2 MSTORE PUSH1 0x20 ADD SWAP1 DUP2 MSTORE PUSH1 0x20 ADD PUSH0 KECCAK256 SLOAD LT ISZERO PUSH2 0x412 JUMPI PUSH2 0x3E0 PUSH8 0x539B19CBBD819472 PUSH1 0xC0 SHL PUSH2 0x1015 JUMP JUMPDEST PUSH1 0x40 MLOAD PUSH32 0x8E875AB100000000000000000000000000000000000000000000000000000000 DUP2 MSTORE PUSH1 0x4 ADD PUSH1 0x40 MLOAD DUP1 SWAP2 SUB SWAP1 REVERT JUMPDEST PUSH2 0x426 PUSH8 0xCF5061D875600B00 PUSH1 0xC0 SHL PUSH2 0x1015 JUMP JUMPDEST PUSH2 0x43A PUSH8 0x9F11DD2D05376A0C PUSH1 0xC0 SHL PUSH2 0x1015 JUMP JUMPDEST DUP1 PUSH1 0x2 PUSH0 DUP6 PUSH20 0xFFFFFFFFFFFFFFFFFFFFFFFFFFFFFFFFFFFFFFFF AND PUSH20 0xFFFFFFFFFFFFFFFFFFFFFFFFFFFFFFFFFFFFFFFF AND DUP2 MSTORE PUSH1 0x20 ADD SWAP1 DUP2 MSTORE PUSH1 0x20 ADD PUSH0 KECCAK256 PUSH0 DUP3 DUP3 SLOAD PUSH2 0x486 SWAP2 SWAP1 PUSH2 0x13CD JUMP JUMPDEST SWAP3 POP POP DUP2 SWAP1 SSTORE POP PUSH2 0x4A1 PUSH8 0xBA2BDA6EB8C22347 PUSH1 0xC0 SHL PUSH2 0x1015 JUMP JUMPDEST PUSH2 0x4B5 PUSH8 0xD9556336E8248841 PUSH1 0xC0 SHL PUSH2 0x1015 JUMP JUMPDEST PUSH0 PUSH32 0x0 PUSH20 0xFFFFFFFFFFFFFFFFFFFFFFFFFFFFFFFFFFFFFFFF AND PUSH4 0xA9059CBB DUP5 DUP5 PUSH1 0x40 MLOAD DUP4 PUSH4 0xFFFFFFFF AND PUSH1 0xE0 SHL DUP2 MSTORE PUSH1 0x4 ADD PUSH2 0x511 SWAP3 SWAP2 SWAP1 PUSH2 0x1400 JUMP JUMPDEST PUSH1 0x20 PUSH1 0x40 MLOAD DUP1 DUP4 SUB DUP2 PUSH0 DUP8 GAS CALL ISZERO DUP1 ISZERO PUSH2 0x52D JUMPI RETURNDATASIZE PUSH0 DUP1 RETURNDATACOPY RETURNDATASIZE PUSH0 REVERT JUMPDEST POP POP POP POP PUSH1 0x40 MLOAD RETURNDATASIZE PUSH1 0x1F NOT PUSH1 0x1F DUP3 ADD AND DUP3 ADD DUP1 PUSH1 0x40 MSTORE POP DUP2 ADD SWAP1 PUSH2 0x551 SWAP2 SWAP1 PUSH2 0x145C JUMP JUMPDEST SWAP1 POP PUSH2 0x567 PUSH8 0x8F86C94BCE2DFCC2 PUSH1 0xC0 SHL PUSH2 0x1015 JUMP JUMPDEST PUSH2 0x57B PUSH8 0x659996F73C2EA6EC PUSH1 0xC0 SHL PUSH2 0x1015 JUMP JUMPDEST PUSH2 0x58F PUSH8 0xE7913304E34D73FB PUSH1 0xC0 SHL PUSH2 0x1015 JUMP JUMPDEST DUP1 PUSH2 0x5CF JUMPI PUSH1 0x40 MLOAD PUSH32 0x8C379A000000000000000000000000000000000000000000000000000000000 DUP2 MSTORE PUSH1 0x4 ADD PUSH2 0x5C6 SWAP1 PUSH2 0x14E1 JUMP JUMPDEST PUSH1 0x40 MLOAD DUP1 SWAP2 SUB SWAP1 REVERT JUMPDEST PUSH2 0x5E3 PUSH8 0x6E429F0E10F64875 PUSH1 0xC0 SHL PUSH2 0x1015 JUMP JUMPDEST PUSH2 0x5F7 PUSH8 0x57B48EA3E3FF1560 PUSH1 0xC0 SHL PUSH2 0x1015 JUMP JUMPDEST PUSH2 0x60B PUSH8 0x2A75A6120DFB88F PUSH1 0xC0 SHL PUSH2 0x1015 JUMP JUMPDEST DUP3 PUSH20 0xFFFFFFFFFFFFFFFFFFFFFFFFFFFFFFFFFFFFFFFF AND DUP5 PUSH20 0xFFFFFFFFFFFFFFFFFFFFFFFFFFFFFFFFFFFFFFFF AND PUSH32 0xFDC1EC2A5977552CAF88C64B5EA5CC47CD4329EE5720F653939DA9DFD888D4F0 DUP5 PUSH1 0x40 MLOAD PUSH2 0x668 SWAP2 SWAP1 PUSH2 0x1313 JUMP JUMPDEST PUSH1 0x40 MLOAD DUP1 SWAP2 SUB SWAP1 LOG3 POP POP POP POP JUMP JUMPDEST PUSH2 0x68A PUSH8 0x4505C5A6288EA519 PUSH1 0xC0 SHL PUSH2 0x1015 JUMP JUMPDEST PUSH2 0x69E PUSH8 0xB2F806D9BFBE90A3 PUSH1 0xC0 SHL PUSH2 0x1015 JUMP JUMPDEST PUSH2 0x6B2 PUSH8 0x92AADD9CBF845718 PUSH1 0xC0 SHL PUSH2 0x1015 JUMP JUMPDEST PUSH1 0x1 PUSH0 SWAP1 SLOAD SWAP1 PUSH2 0x100 EXP SWAP1 DIV PUSH20 0xFFFFFFFFFFFFFFFFFFFFFFFFFFFFFFFFFFFFFFFF AND PUSH20 0xFFFFFFFFFFFFFFFFFFFFFFFFFFFFFFFFFFFFFFFF AND CALLER PUSH20 0xFFFFFFFFFFFFFFFFFFFFFFFFFFFFFFFFFFFFFFFF AND EQ PUSH2 0x74C JUMPI PUSH2 0x71A PUSH8 0xDBC151884B806A03 PUSH1 0xC0 SHL PUSH2 0x1015 JUMP JUMPDEST PUSH1 0x40 MLOAD PUSH32 0x7C214F0400000000000000000000000000000000000000000000000000000000 DUP2 MSTORE PUSH1 0x4 ADD PUSH1 0x40 MLOAD DUP1 SWAP2 SUB SWAP1 REVERT JUMPDEST PUSH2 0x760 PUSH8 0x5C637605187420E5 PUSH1 0xC0 SHL PUSH2 0x1015 JUMP JUMPDEST PUSH2 0x774 PUSH8 0xC7E80BE9C5F14589 PUSH1 0xC0 SHL PUSH2 0x1015 JUMP JUMPDEST PUSH2 0x788 PUSH8 0xB0190FD5E0C84076 PUSH1 0xC0 SHL PUSH2 0x1015 JUMP JUMPDEST DUP1 PUSH1 0x2 PUSH0 DUP5 PUSH20 0xFFFFFFFFFFFFFFFFFFFFFFFFFFFFFFFFFFFFFFFF AND PUSH20 0xFFFFFFFFFFFFFFFFFFFFFFFFFFFFFFFFFFFFFFFF AND DUP2 MSTORE PUSH1 0x20 ADD SWAP1 DUP2 MSTORE PUSH1 0x20 ADD PUSH0 KECCAK256 SLOAD LT ISZERO PUSH2 0x813 JUMPI PUSH2 0x7E1 PUSH8 0x27BBE68018155727 PUSH1 0xC0 SHL PUSH2 0x1015 JUMP JUMPDEST PUSH1 0x40 MLOAD PUSH32 0x8E875AB100000000000000000000000000000000000000000000000000000000 DUP2 MSTORE PUSH1 0x4 ADD PUSH1 0x40 MLOAD DUP1 SWAP2 SUB SWAP1 REVERT JUMPDEST PUSH2 0x827 PUSH8 0x560CB13C767DCE70 PUSH1 0xC0 SHL PUSH2 0x1015 JUMP JUMPDEST PUSH2 0x83B PUSH8 0x192B46972DB83960 PUSH1 0xC0 SHL PUSH2 0x1015 JUMP JUMPDEST DUP1 PUSH1 0x2 PUSH0 DUP5 PUSH20 0xFFFFFFFFFFFFFFFFFFFFFFFFFFFFFFFFFFFFFFFF AND PUSH20 0xFFFFFFFFFFFFFFFFFFFFFFFFFFFFFFFFFFFFFFFF AND DUP2 MSTORE PUSH1 0x20 ADD SWAP1 DUP2 MSTORE PUSH1 0x20 ADD PUSH0 KECCAK256 PUSH0 DUP3 DUP3 SLOAD PUSH2 0x887 SWAP2 SWAP1 PUSH2 0x13CD JUMP JUMPDEST SWAP3 POP POP DUP2 SWAP1 SSTORE POP PUSH2 0x8A2 PUSH8 0x60C37096955344DE PUSH1 0xC0 SHL PUSH2 0x1015 JUMP JUMPDEST PUSH2 0x8B6 PUSH8 0x761CC71E3750F53F PUSH1 0xC0 SHL PUSH2 0x1015 JUMP JUMPDEST PUSH0 PUSH32 0x0 PUSH20 0xFFFFFFFFFFFFFFFFFFFFFFFFFFFFFFFFFFFFFFFF AND PUSH4 0xA9059CBB DUP5 DUP5 PUSH1 0x40 MLOAD DUP4 PUSH4 0xFFFFFFFF AND PUSH1 0xE0 SHL DUP2 MSTORE PUSH1 0x4 ADD PUSH2 0x912 SWAP3 SWAP2 SWAP1 PUSH2 0x1400 JUMP JUMPDEST PUSH1 0x20 PUSH1 0x40 MLOAD DUP1 DUP4 SUB DUP2 PUSH0 DUP8 GAS CALL ISZERO DUP1 ISZERO PUSH2 0x92E JUMPI RETURNDATASIZE PUSH0 DUP1 RETURNDATACOPY RETURNDATASIZE PUSH0 REVERT JUMPDEST POP POP POP POP PUSH1 0x40 MLOAD RETURNDATASIZE PUSH1 0x1F NOT PUSH1 0x1F DUP3 ADD AND DUP3 ADD DUP1 PUSH1 0x40 MSTORE POP DUP2 ADD SWAP1 PUSH2 0x952 SWAP2 SWAP1 PUSH2 0x145C JUMP JUMPDEST SWAP1 POP PUSH2 0x968 PUSH8 0xC73DA696D1D78B23 PUSH1 0xC0 SHL PUSH2 0x1015 JUMP JUMPDEST PUSH2 0x97C PUSH8 0xC57F83929A46FC29 PUSH1 0xC0 SHL PUSH2 0x1015 JUMP JUMPDEST PUSH2 0x990 PUSH8 0x3679B484C4E00F89 PUSH1 0xC0 SHL PUSH2 0x1015 JUMP JUMPDEST DUP1 PUSH2 0x9D0 JUMPI PUSH1 0x40 MLOAD PUSH32 0x8C379A000000000000000000000000000000000000000000000000000000000 DUP2 MSTORE PUSH1 0x4 ADD PUSH2 0x9C7 SWAP1 PUSH2 0x14E1 JUMP JUMPDEST PUSH1 0x40 MLOAD DUP1 SWAP2 SUB SWAP1 REVERT JUMPDEST PUSH2 0x9E4 PUSH8 0xC338408A270AC9EE PUSH1 0xC0 SHL PUSH2 0x1015 JUMP JUMPDEST PUSH2 0x9F8 PUSH8 0x9E1BFD74338EDFD1 PUSH1 0xC0 SHL PUSH2 0x1015 JUMP JUMPDEST PUSH2 0xA0C PUSH8 0x9D7E3121BC0DB1C2 PUSH1 0xC0 SHL PUSH2 0x1015 JUMP JUMPDEST DUP3 PUSH20 0xFFFFFFFFFFFFFFFFFFFFFFFFFFFFFFFFFFFFFFFF AND PUSH32 0x5B035BE76C6224AE570D8D05097177ED728AAB6364D39F1EC803B4126FD25FCE DUP4 PUSH1 0x40 MLOAD PUSH2 0xA52 SWAP2 SWAP1 PUSH2 0x1313 JUMP JUMPDEST PUSH1 0x40 MLOAD DUP1 SWAP2 SUB SWAP1 LOG2 POP POP POP JUMP JUMPDEST PUSH1 0x1 PUSH0 SWAP1 SLOAD SWAP1 PUSH2 0x100 EXP SWAP1 DIV PUSH20 0xFFFFFFFFFFFFFFFFFFFFFFFFFFFFFFFFFFFFFFFF AND DUP2 JUMP JUMPDEST PUSH2 0xA8C PUSH2 0x1018 JUMP JUMPDEST PUSH2 0xA95 PUSH0 PUSH2 0x109F JUMP JUMPDEST JUMP JUMPDEST PUSH0 DUP1 PUSH0 SWAP1 SLOAD SWAP1 PUSH2 0x100 EXP SWAP1 DIV PUSH20 0xFFFFFFFFFFFFFFFFFFFFFFFFFFFFFFFFFFFFFFFF AND SWAP1 POP SWAP1 JUMP JUMPDEST PUSH2 0xAD2 PUSH8 0x1B245C08D179A4A0 PUSH1 0xC0 SHL PUSH2 0x1015 JUMP JUMPDEST PUSH2 0xADA PUSH2 0x1018 JUMP JUMPDEST PUSH2 0xAEE PUSH8 0x6110C86A5C192F8F PUSH1 0xC0 SHL PUSH2 0x1015 JUMP JUMPDEST PUSH2 0xB02 PUSH8 0xD3569F5953A214AF PUSH1 0xC0 SHL PUSH2 0x1015 JUMP JUMPDEST PUSH2 0xB16 PUSH8 0xF8EF70BA8E0C5FA2 PUSH1 0xC0 SHL PUSH2 0x1015 JUMP JUMPDEST PUSH2 0xB2A PUSH8 0x8FABC4745953F1EA PUSH1 0xC0 SHL PUSH2 0x1015 JUMP JUMPDEST PUSH0 PUSH20 0xFFFFFFFFFFFFFFFFFFFFFFFFFFFFFFFFFFFFFFFF AND DUP2 PUSH20 0xFFFFFFFFFFFFFFFFFFFFFFFFFFFFFFFFFFFFFFFF AND SUB PUSH2 0xBA3 JUMPI PUSH2 0xB71 PUSH8 0x9B09C9EE9FAEA437 PUSH1 0xC0 SHL PUSH2 0x1015 JUMP JUMPDEST PUSH1 0x40 MLOAD PUSH32 0xD92E233D00000000000000000000000000000000000000000000000000000000 DUP2 MSTORE PUSH1 0x4 ADD PUSH1 0x40 MLOAD DUP1 SWAP2 SUB SWAP1 REVERT JUMPDEST PUSH2 0xBB7 PUSH8 0x420273619A6C42BD PUSH1 0xC0 SHL PUSH2 0x1015 JUMP JUMPDEST PUSH2 0xBCB PUSH8 0xA9615E2F4CA7D7DD PUSH1 0xC0 SHL PUSH2 0x1015 JUMP JUMPDEST DUP1 PUSH1 0x1 PUSH0 PUSH2 0x100 EXP DUP2 SLOAD DUP2 PUSH20 0xFFFFFFFFFFFFFFFFFFFFFFFFFFFFFFFFFFFFFFFF MUL NOT AND SWAP1 DUP4 PUSH20 0xFFFFFFFFFFFFFFFFFFFFFFFFFFFFFFFFFFFFFFFF AND MUL OR SWAP1 SSTORE POP PUSH2 0xC1F PUSH8 0x5EDF9586FD8C750C PUSH1 0xC0 SHL PUSH2 0x1015 JUMP JUMPDEST PUSH2 0xC33 PUSH8 0x3E997872B771881E PUSH1 0xC0 SHL PUSH2 0x1015 JUMP JUMPDEST DUP1 PUSH20 0xFFFFFFFFFFFFFFFFFFFFFFFFFFFFFFFFFFFFFFFF AND PUSH32 0xB3B3F5F64AB192E4B5FEFDE1F51CE9733BBDCF831951543B325AEBD49CC27EC4 PUSH1 0x40 MLOAD PUSH1 0x40 MLOAD DUP1 SWAP2 SUB SWAP1 LOG2 POP JUMP JUMPDEST PUSH2 0xC8D PUSH8 0xB8F5E11B7C4B1CE9 PUSH1 0xC0 SHL PUSH2 0x1015 JUMP JUMPDEST PUSH2 0xCA1 PUSH8 0x4C4F4F4245840B0 PUSH1 0xC0 SHL PUSH2 0x1015 JUMP JUMPDEST PUSH2 0xCB5 PUSH8 0x3023D2B96206057E PUSH1 0xC0 SHL PUSH2 0x1015 JUMP JUMPDEST PUSH2 0xCC9 PUSH8 0x7AEBC11D70A36F5F PUSH1 0xC0 SHL PUSH2 0x1015 JUMP JUMPDEST PUSH0 DUP2 GT PUSH2 0xD0B JUMPI PUSH1 0x40 MLOAD PUSH32 0x8C379A000000000000000000000000000000000000000000000000000000000 DUP2 MSTORE PUSH1 0x4 ADD PUSH2 0xD02 SWAP1 PUSH2 0x1549 JUMP JUMPDEST PUSH1 0x40 MLOAD DUP1 SWAP2 SUB SWAP1 REVERT JUMPDEST PUSH2 0xD1F PUSH8 0xF8AC4159A154B753 PUSH1 0xC0 SHL PUSH2 0x1015 JUMP JUMPDEST PUSH2 0xD33 PUSH8 0x5974DA5EC22F6756 PUSH1 0xC0 SHL PUSH2 0x1015 JUMP JUMPDEST PUSH2 0xD47 PUSH8 0xB0C29C68378C2E4C PUSH1 0xC0 SHL PUSH2 0x1015 JUMP JUMPDEST PUSH0 PUSH32 0x0 PUSH20 0xFFFFFFFFFFFFFFFFFFFFFFFFFFFFFFFFFFFFFFFF AND PUSH4 0x23B872DD CALLER ADDRESS DUP6 PUSH1 0x40 MLOAD DUP5 PUSH4 0xFFFFFFFF AND PUSH1 0xE0 SHL DUP2 MSTORE PUSH1 0x4 ADD PUSH2 0xDA5 SWAP4 SWAP3 SWAP2 SWAP1 PUSH2 0x1567 JUMP JUMPDEST PUSH1 0x20 PUSH1 0x40 MLOAD DUP1 DUP4 SUB DUP2 PUSH0 DUP8 GAS CALL ISZERO DUP1 ISZERO PUSH2 0xDC1 JUMPI RETURNDATASIZE PUSH0 DUP1 RETURNDATACOPY RETURNDATASIZE PUSH0 REVERT JUMPDEST POP POP POP POP PUSH1 0x40 MLOAD RETURNDATASIZE PUSH1 0x1F NOT PUSH1 0x1F DUP3 ADD AND DUP3 ADD DUP1 PUSH1 0x40 MSTORE POP DUP2 ADD SWAP1 PUSH2 0xDE5 SWAP2 SWAP1 PUSH2 0x145C JUMP JUMPDEST SWAP1 POP PUSH2 0xDFB PUSH8 0x4773D5CADF9C96C1 PUSH1 0xC0 SHL PUSH2 0x1015 JUMP JUMPDEST PUSH2 0xE0F PUSH8 0xC5A46A63412051E3 PUSH1 0xC0 SHL PUSH2 0x1015 JUMP JUMPDEST PUSH2 0xE23 PUSH8 0xC52DC89D2022FB56 PUSH1 0xC0 SHL PUSH2 0x1015 JUMP JUMPDEST DUP1 PUSH2 0xE63 JUMPI PUSH1 0x40 MLOAD PUSH32 0x8C379A000000000000000000000000000000000000000000000000000000000 DUP2 MSTORE PUSH1 0x4 ADD PUSH2 0xE5A SWAP1 PUSH2 0x15E6 JUMP JUMPDEST PUSH1 0x40 MLOAD DUP1 SWAP2 SUB SWAP1 REVERT JUMPDEST PUSH2 0xE77 PUSH8 0x57F18205A64A8940 PUSH1 0xC0 SHL PUSH2 0x1015 JUMP JUMPDEST PUSH2 0xE8B PUSH8 0x4BC9614B8CDAE21E PUSH1 0xC0 SHL PUSH2 0x1015 JUMP JUMPDEST DUP2 PUSH1 0x2 PUSH0 CALLER PUSH20 0xFFFFFFFFFFFFFFFFFFFFFFFFFFFFFFFFFFFFFFFF AND PUSH20 0xFFFFFFFFFFFFFFFFFFFFFFFFFFFFFFFFFFFFFFFF AND DUP2 MSTORE PUSH1 0x20 ADD SWAP1 DUP2 MSTORE PUSH1 0x20 ADD PUSH0 KECCAK256 PUSH0 DUP3 DUP3 SLOAD PUSH2 0xED7 SWAP2 SWAP1 PUSH2 0x1604 JUMP JUMPDEST SWAP3 POP POP DUP2 SWAP1 SSTORE POP PUSH2 0xEF2 PUSH8 0xA826A0C19515055E PUSH1 0xC0 SHL PUSH2 0x1015 JUMP JUMPDEST PUSH2 0xF06 PUSH8 0x5884A93F4C7C2ADA PUSH1 0xC0 SHL PUSH2 0x1015 JUMP JUMPDEST CALLER PUSH20 0xFFFFFFFFFFFFFFFFFFFFFFFFFFFFFFFFFFFFFFFF AND PUSH32 0xB32B4347BBDC9BA4A012D47D705293E27129616282349EDDF6807E1D4A40E464 DUP4 PUSH1 0x40 MLOAD PUSH2 0xF4C SWAP2 SWAP1 PUSH2 0x1313 JUMP JUMPDEST PUSH1 0x40 MLOAD DUP1 SWAP2 SUB SWAP1 LOG2 POP POP JUMP JUMPDEST PUSH1 0x2 PUSH1 0x20 MSTORE DUP1 PUSH0 MSTORE PUSH1 0x40 PUSH0 KECCAK256 PUSH0 SWAP2 POP SWAP1 POP SLOAD DUP2 JUMP JUMPDEST PUSH2 0xF75 PUSH2 0x1018 JUMP JUMPDEST PUSH0 PUSH20 0xFFFFFFFFFFFFFFFFFFFFFFFFFFFFFFFFFFFFFFFF AND DUP2 PUSH20 0xFFFFFFFFFFFFFFFFFFFFFFFFFFFFFFFFFFFFFFFF AND SUB PUSH2 0xFE5 JUMPI PUSH0 PUSH1 0x40 MLOAD PUSH32 0x1E4FBDF700000000000000000000000000000000000000000000000000000000 DUP2 MSTORE PUSH1 0x4 ADD PUSH2 0xFDC SWAP2 SWAP1 PUSH2 0x1295 JUMP JUMPDEST PUSH1 0x40 MLOAD DUP1 SWAP2 SUB SWAP1 REVERT JUMPDEST PUSH2 0xFEE DUP2 PUSH2 0x109F JUMP JUMPDEST POP JUMP JUMPDEST PUSH32 0x0 DUP2 JUMP JUMPDEST POP JUMP JUMPDEST PUSH2 0x1020 PUSH2 0x1160 JUMP JUMPDEST PUSH20 0xFFFFFFFFFFFFFFFFFFFFFFFFFFFFFFFFFFFFFFFF AND PUSH2 0x103E PUSH2 0xA97 JUMP JUMPDEST PUSH20 0xFFFFFFFFFFFFFFFFFFFFFFFFFFFFFFFFFFFFFFFF AND EQ PUSH2 0x109D JUMPI PUSH2 0x1061 PUSH2 0x1160 JUMP JUMPDEST PUSH1 0x40 MLOAD PUSH32 0x118CDAA700000000000000000000000000000000000000000000000000000000 DUP2 MSTORE PUSH1 0x4 ADD PUSH2 0x1094 SWAP2 SWAP1 PUSH2 0x1295 JUMP JUMPDEST PUSH1 0x40 MLOAD DUP1 SWAP2 SUB SWAP1 REVERT JUMPDEST JUMP JUMPDEST PUSH0 DUP1 PUSH0 SWAP1 SLOAD SWAP1 PUSH2 0x100 EXP SWAP1 DIV PUSH20 0xFFFFFFFFFFFFFFFFFFFFFFFFFFFFFFFFFFFFFFFF AND SWAP1 POP DUP2 PUSH0 DUP1 PUSH2 0x100 EXP DUP2 SLOAD DUP2 PUSH20 0xFFFFFFFFFFFFFFFFFFFFFFFFFFFFFFFFFFFFFFFF MUL NOT AND SWAP1 DUP4 PUSH20 0xFFFFFFFFFFFFFFFFFFFFFFFFFFFFFFFFFFFFFFFF AND MUL OR SWAP1 SSTORE POP DUP2 PUSH20 0xFFFFFFFFFFFFFFFFFFFFFFFFFFFFFFFFFFFFFFFF AND DUP2 PUSH20 0xFFFFFFFFFFFFFFFFFFFFFFFFFFFFFFFFFFFFFFFF AND PUSH32 0x8BE0079C531659141344CD1FD0A4F28419497F9722A3DAAFE3B4186F6B6457E0 PUSH1 0x40 MLOAD PUSH1 0x40 MLOAD DUP1 SWAP2 SUB SWAP1 LOG3 POP POP JUMP JUMPDEST PUSH0 CALLER SWAP1 POP SWAP1 JUMP JUMPDEST PUSH0 DUP1 REVERT JUMPDEST PUSH0 PUSH20 0xFFFFFFFFFFFFFFFFFFFFFFFFFFFFFFFFFFFFFFFF DUP3 AND SWAP1 POP SWAP2 SWAP1 POP JUMP JUMPDEST PUSH0 PUSH2 0x1194 DUP3 PUSH2 0x116B JUMP JUMPDEST SWAP1 POP SWAP2 SWAP1 POP JUMP JUMPDEST PUSH2 0x11A4 DUP2 PUSH2 0x118A JUMP JUMPDEST DUP2 EQ PUSH2 0x11AE JUMPI PUSH0 DUP1 REVERT JUMPDEST POP JUMP JUMPDEST PUSH0 DUP2 CALLDATALOAD SWAP1 POP PUSH2 0x11BF DUP2 PUSH2 0x119B JUMP JUMPDEST SWAP3 SWAP2 POP POP JUMP JUMPDEST PUSH0 DUP2 SWAP1 POP SWAP2 SWAP1 POP JUMP JUMPDEST PUSH2 0x11D7 DUP2 PUSH2 0x11C5 JUMP JUMPDEST DUP2 EQ PUSH2 0x11E1 JUMPI PUSH0 DUP1 REVERT JUMPDEST POP JUMP JUMPDEST PUSH0 DUP2 CALLDATALOAD SWAP1 POP PUSH2 0x11F2 DUP2 PUSH2 0x11CE JUMP JUMPDEST SWAP3 SWAP2 POP POP JUMP JUMPDEST PUSH0 DUP1 PUSH0 PUSH1 0x60 DUP5 DUP7 SUB SLT ISZERO PUSH2 0x120F JUMPI PUSH2 0x120E PUSH2 0x1167 JUMP JUMPDEST JUMPDEST PUSH0 PUSH2 0x121C DUP7 DUP3 DUP8 ADD PUSH2 0x11B1 JUMP JUMPDEST SWAP4 POP POP PUSH1 0x20 PUSH2 0x122D DUP7 DUP3 DUP8 ADD PUSH2 0x11B1 JUMP JUMPDEST SWAP3 POP POP PUSH1 0x40 PUSH2 0x123E DUP7 DUP3 DUP8 ADD PUSH2 0x11E4 JUMP JUMPDEST SWAP2 POP POP SWAP3 POP SWAP3 POP SWAP3 JUMP JUMPDEST PUSH0 DUP1 PUSH1 0x40 DUP4 DUP6 SUB SLT ISZERO PUSH2 0x125E JUMPI PUSH2 0x125D PUSH2 0x1167 JUMP JUMPDEST JUMPDEST PUSH0 PUSH2 0x126B DUP6 DUP3 DUP7 ADD PUSH2 0x11B1 JUMP JUMPDEST SWAP3 POP POP PUSH1 0x20 PUSH2 0x127C DUP6 DUP3 DUP7 ADD PUSH2 0x11E4 JUMP JUMPDEST SWAP2 POP POP SWAP3 POP SWAP3 SWAP1 POP JUMP JUMPDEST PUSH2 0x128F DUP2 PUSH2 0x118A JUMP JUMPDEST DUP3 MSTORE POP POP JUMP JUMPDEST PUSH0 PUSH1 0x20 DUP3 ADD SWAP1 POP PUSH2 0x12A8 PUSH0 DUP4 ADD DUP5 PUSH2 0x1286 JUMP JUMPDEST SWAP3 SWAP2 POP POP JUMP JUMPDEST PUSH0 PUSH1 0x20 DUP3 DUP5 SUB SLT ISZERO PUSH2 0x12C3 JUMPI PUSH2 0x12C2 PUSH2 0x1167 JUMP JUMPDEST JUMPDEST PUSH0 PUSH2 0x12D0 DUP5 DUP3 DUP6 ADD PUSH2 0x11B1 JUMP JUMPDEST SWAP2 POP POP SWAP3 SWAP2 POP POP JUMP JUMPDEST PUSH0 PUSH1 0x20 DUP3 DUP5 SUB SLT ISZERO PUSH2 0x12EE JUMPI PUSH2 0x12ED PUSH2 0x1167 JUMP JUMPDEST JUMPDEST PUSH0 PUSH2 0x12FB DUP5 DUP3 DUP6 ADD PUSH2 0x11E4 JUMP JUMPDEST SWAP2 POP POP SWAP3 SWAP2 POP POP JUMP JUMPDEST PUSH2 0x130D DUP2 PUSH2 0x11C5 JUMP JUMPDEST DUP3 MSTORE POP POP JUMP JUMPDEST PUSH0 PUSH1 0x20 DUP3 ADD SWAP1 POP PUSH2 0x1326 PUSH0 DUP4 ADD DUP5 PUSH2 0x1304 JUMP JUMPDEST SWAP3 SWAP2 POP POP JUMP JUMPDEST PUSH0 DUP2 SWAP1 POP SWAP2 SWAP1 POP JUMP JUMPDEST PUSH0 PUSH2 0x134F PUSH2 0x134A PUSH2 0x1345 DUP5 PUSH2 0x116B JUMP JUMPDEST PUSH2 0x132C JUMP JUMPDEST PUSH2 0x116B JUMP JUMPDEST SWAP1 POP SWAP2 SWAP1 POP JUMP JUMPDEST PUSH0 PUSH2 0x1360 DUP3 PUSH2 0x1335 JUMP JUMPDEST SWAP1 POP SWAP2 SWAP1 POP JUMP JUMPDEST PUSH0 PUSH2 0x1371 DUP3 PUSH2 0x1356 JUMP JUMPDEST SWAP1 POP SWAP2 SWAP1 POP JUMP JUMPDEST PUSH2 0x1381 DUP2 PUSH2 0x1367 JUMP JUMPDEST DUP3 MSTORE POP POP JUMP JUMPDEST PUSH0 PUSH1 0x20 DUP3 ADD SWAP1 POP PUSH2 0x139A PUSH0 DUP4 ADD DUP5 PUSH2 0x1378 JUMP JUMPDEST SWAP3 SWAP2 POP POP JUMP JUMPDEST PUSH32 0x4E487B7100000000000000000000000000000000000000000000000000000000 PUSH0 MSTORE PUSH1 0x11 PUSH1 0x4 MSTORE PUSH1 0x24 PUSH0 REVERT JUMPDEST PUSH0 PUSH2 0x13D7 DUP3 PUSH2 0x11C5 JUMP JUMPDEST SWAP2 POP PUSH2 0x13E2 DUP4 PUSH2 0x11C5 JUMP JUMPDEST SWAP3 POP DUP3 DUP3 SUB SWAP1 POP DUP2 DUP2 GT ISZERO PUSH2 0x13FA JUMPI PUSH2 0x13F9 PUSH2 0x13A0 JUMP JUMPDEST JUMPDEST SWAP3 SWAP2 POP POP JUMP JUMPDEST PUSH0 PUSH1 0x40 DUP3 ADD SWAP1 POP PUSH2 0x1413 PUSH0 DUP4 ADD DUP6 PUSH2 0x1286 JUMP JUMPDEST PUSH2 0x1420 PUSH1 0x20 DUP4 ADD DUP5 PUSH2 0x1304 JUMP JUMPDEST SWAP4 SWAP3 POP POP POP JUMP JUMPDEST PUSH0 DUP2 ISZERO ISZERO SWAP1 POP SWAP2 SWAP1 POP JUMP JUMPDEST PUSH2 0x143B DUP2 PUSH2 0x1427 JUMP JUMPDEST DUP2 EQ PUSH2 0x1445 JUMPI PUSH0 DUP1 REVERT JUMPDEST POP JUMP JUMPDEST PUSH0 DUP2 MLOAD SWAP1 POP PUSH2 0x1456 DUP2 PUSH2 0x1432 JUMP JUMPDEST SWAP3 SWAP2 POP POP JUMP JUMPDEST PUSH0 PUSH1 0x20 DUP3 DUP5 SUB SLT ISZERO PUSH2 0x1471 JUMPI PUSH2 0x1470 PUSH2 0x1167 JUMP JUMPDEST JUMPDEST PUSH0 PUSH2 0x147E DUP5 DUP3 DUP6 ADD PUSH2 0x1448 JUMP JUMPDEST SWAP2 POP POP SWAP3 SWAP2 POP POP JUMP JUMPDEST PUSH0 DUP3 DUP3 MSTORE PUSH1 0x20 DUP3 ADD SWAP1 POP SWAP3 SWAP2 POP POP JUMP JUMPDEST PUSH32 0x7472616E73666572206661696C65640000000000000000000000000000000000 PUSH0 DUP3 ADD MSTORE POP JUMP JUMPDEST PUSH0 PUSH2 0x14CB PUSH1 0xF DUP4 PUSH2 0x1487 JUMP JUMPDEST SWAP2 POP PUSH2 0x14D6 DUP3 PUSH2 0x1497 JUMP JUMPDEST PUSH1 0x20 DUP3 ADD SWAP1 POP SWAP2 SWAP1 POP JUMP JUMPDEST PUSH0 PUSH1 0x20 DUP3 ADD SWAP1 POP DUP2 DUP2 SUB PUSH0 DUP4 ADD MSTORE PUSH2 0x14F8 DUP2 PUSH2 0x14BF JUMP JUMPDEST SWAP1 POP SWAP2 SWAP1 POP JUMP JUMPDEST PUSH32 0x616D6F756E743D30000000000000000000000000000000000000000000000000 PUSH0 DUP3 ADD MSTORE POP JUMP JUMPDEST PUSH0 PUSH2 0x1533 PUSH1 0x8 DUP4 PUSH2 0x1487 JUMP JUMPDEST SWAP2 POP PUSH2 0x153E DUP3 PUSH2 0x14FF JUMP JUMPDEST PUSH1 0x20 DUP3 ADD SWAP1 POP SWAP2 SWAP1 POP JUMP JUMPDEST PUSH0 PUSH1 0x20 DUP3 ADD SWAP1 POP DUP2 DUP2 SUB PUSH0 DUP4 ADD MSTORE PUSH2 0x1560 DUP2 PUSH2 0x1527 JUMP JUMPDEST SWAP1 POP SWAP2 SWAP1 POP JUMP JUMPDEST PUSH0 PUSH1 0x60 DUP3 ADD SWAP1 POP PUSH2 0x157A PUSH0 DUP4 ADD DUP7 PUSH2 0x1286 JUMP JUMPDEST PUSH2 0x1587 PUSH1 0x20 DUP4 ADD DUP6 PUSH2 0x1286 JUMP JUMPDEST PUSH2 0x1594 PUSH1 0x40 DUP4 ADD DUP5 PUSH2 0x1304 JUMP JUMPDEST SWAP5 SWAP4 POP POP POP POP JUMP JUMPDEST PUSH32 0x7472616E7366657246726F6D206661696C656400000000000000000000000000 PUSH0 DUP3 ADD MSTORE POP JUMP JUMPDEST PUSH0 PUSH2 0x15D0 PUSH1 0x13 DUP4 PUSH2 0x1487 JUMP JUMPDEST SWAP2 POP PUSH2 0x15DB DUP3 PUSH2 0x159C JUMP JUMPDEST PUSH1 0x20 DUP3 ADD SWAP1 POP SWAP2 SWAP1 POP JUMP JUMPDEST PUSH0 PUSH1 0x20 DUP3 ADD SWAP1 POP DUP2 DUP2 SUB PUSH0 DUP4 ADD MSTORE PUSH2 0x15FD DUP2 PUSH2 0x15C4 JUMP JUMPDEST SWAP1 POP SWAP2 SWAP1 POP JUMP JUMPDEST PUSH0 PUSH2 0x160E DUP3 PUSH2 0x11C5 JUMP JUMPDEST SWAP2 POP PUSH2 0x1619 DUP4 PUSH2 0x11C5 JUMP JUMPDEST SWAP3 POP DUP3 DUP3 ADD SWAP1 POP DUP1 DUP3 GT ISZERO PUSH2 0x1631 JUMPI PUSH2 0x1630 PUSH2 0x13A0 JUMP JUMPDEST JUMPDEST SWAP3 SWAP2 POP POP JUMP INVALID LOG2 PUSH5 0x6970667358 0x22 SLT KECCAK256 RETURNDATASIZE PUSH18 0x13A4E5FC69854CEBDE9C117AAB13EE179DF0 KECCAK256 0xB0 0xDE SGT 0xB7 SWAP8 PUSH0 EXTCODECOPY 0xC8 DUP1 0xD1 0xCD PUSH5 0x736F6C6343 STOP ADDMOD BYTE STOP CALLER "},"methodIdentifiers":{"captureDeposit(address,address,uint256)":"41b00807","heldBalance(address)":"f10c974f","holdDeposit(uint256)":"c100ca5c","operator()":"570ca735","owner()":"8da5cb5b","releaseDeposit(address,uint256)":"524dd059","renounceOwnership()":"715018a6","setOperator(address)":"b3ab15fb","token()":"fc0c546a","transferOwnership(address)":"f2fde38b"}}}}}