{"contracts/MockERC20Config.sol":{"MockERC20Config":{"abi":[{"anonymous":false,"inputs":[{"indexed":true,"internalType":"address","name":"owner","type":"address"},{"indexed":true,"internalType":"address","name":"spender","type":"address"},{"indexed":false,"internalType":"uint256","name":"value","type":"uint256"}],"name":"Approval","type":"event"},{"anonymous":false,"inputs":[{"indexed":true,"internalType":"address","name":"from","type":"address"},{"indexed":true,"internalType":"address","name":"to","type":"address"},{"indexed":false,"internalType":"uint256","name":"value","type":"uint256"}],"name":"Transfer","type":"event"},{"inputs":[{"internalType":"address","name":"owner","type":"address"},{"internalType":"address","name":"spender","type":"address"}],"name":"allowance","outputs":[{"internalType":"uint256","name":"","type":"uint256"}],"stateMutability":"view","type":"function"},{"inputs":[{"internalType":"address","name":"spender","type":"address"},{"internalType":"uint256","name":"amount","type":"uint256"}],"name":"approve","outputs":[{"internalType":"bool","name":"","type":"bool"}],"stateMutability":"nonpayable","type":"function"},{"inputs":[{"internalType":"address","name":"account","type":"address"}],"name":"balanceOf","outputs":[{"internalType":"uint256","name":"","type":"uint256"}],"stateMutability":"view","type":"function"},{"inputs":[],"name":"decimals","outputs":[{"internalType":"uint8","name":"","type":"uint8"}],"stateMutability":"view","type":"function"},{"inputs":[{"internalType":"address","name":"to","type":"address"},{"internalType":"uint256","name":"amount","type":"uint256"}],"name":"mint","outputs":[],"stateMutability":"nonpayable","type":"function"},{"inputs":[],"name":"name","outputs":[{"internalType":"string","name":"","type":"string"}],"stateMutability":"view","type":"function"},{"inputs":[{"internalType":"bool","name":"v","type":"bool"}],"name":"setTransferFromReturns","outputs":[],"stateMutability":"nonpayable","type":"function"},{"inputs":[{"internalType":"bool","name":"v","type":"bool"}],"name":"setTransferReturns","outputs":[],"stateMutability":"nonpayable","type":"function"},{"inputs":[],"name":"symbol","outputs":[{"internalType":"string","name":"","type":"string"}],"stateMutability":"view","type":"function"},{"inputs":[],"name":"totalSupply","outputs":[{"internalType":"uint256","name":"","type":"uint256"}],"stateMutability":"view","type":"function"},{"inputs":[{"internalType":"address","name":"to","type":"address"},{"internalType":"uint256","name":"amount","type":"uint256"}],"name":"transfer","outputs":[{"internalType":"bool","name":"","type":"bool"}],"stateMutability":"nonpayable","type":"function"},{"inputs":[{"internalType":"address","name":"from","type":"address"},{"internalType":"address","name":"to","type":"address"},{"internalType":"uint256","name":"amount","type":"uint256"}],"name":"transferFrom","outputs":[{"internalType":"bool","name":"","type":"bool"}],"stateMutability":"nonpayable","type":"function"},{"inputs":[],"name":"transferFromReturns","outputs":[{"internalType":"bool","name":"","type":"bool"}],"stateMutability":"view","type":"function"},{"inputs":[],"name":"transferReturns","outputs":[{"internalType":"bool","name":"","type":"bool"}],"stateMutability":"view","type":"function"}],"evm":{"bytecode":{"linkReferences":{},"object":"608060405260015f806101000a81548160ff02191690831515021790555060015f60016101000a81548160ff0219169083151502179055503480156041575f80fd5b506114168061004f5f395ff3fe608060405234801561000f575f80fd5b50600436106100e8575f3560e01c806340c10f191161008a57806395d89b411161006457806395d89b411461024a578063a9059cbb14610268578063dd62ed3e14610298578063f383b650146102c8576100e8565b806340c10f19146101e25780636cc829c2146101fe57806370a082311461021a576100e8565b8063238e9a65116100c6578063238e9a651461015857806323b872dd14610176578063253af1de146101a6578063313ce567146101c4576100e8565b806306fdde03146100ec578063095ea7b31461010a57806318160ddd1461013a575b5f80fd5b6100f46102e4565b6040516101019190610f89565b60405180910390f35b610124600480360381019061011f919061103a565b61031d565b6040516101319190611092565b60405180910390f35b610142610482565b60405161014f91906110ba565b60405180910390f35b6101606104c7565b60405161016d9190611092565b60405180910390f35b610190600480360381019061018b91906110d3565b6104d7565b60405161019d9190611092565b60405180910390f35b6101ae6107a6565b6040516101bb9190611092565b60405180910390f35b6101cc6107b8565b6040516101d9919061113e565b60405180910390f35b6101fc60048036038101906101f7919061103a565b6107bd565b005b61021860048036038101906102139190611181565b6108f5565b005b610234600480360381019061022f91906111ac565b610939565b60405161024191906110ba565b60405180910390f35b6102526109bb565b60405161025f9190610f89565b60405180910390f35b610282600480360381019061027d919061103a565b6109f4565b60405161028f9190611092565b60405180910390f35b6102b260048036038101906102ad91906111d7565b610aec565b6040516102bf91906110ba565b60405180910390f35b6102e260048036038101906102dd9190611181565b610baa565b005b6040518060400160405280601081526020017f4d6f636b204a50594320436f6e6669670000000000000000000000000000000081525081565b5f61033267c1b47fe43a52156e60c01b610bed565b61034667bf5034d12bdfe1e760c01b610bed565b8160035f3373ffffffffffffffffffffffffffffffffffffffff1673ffffffffffffffffffffffffffffffffffffffff1681526020019081526020015f205f8573ffffffffffffffffffffffffffffffffffffffff1673ffffffffffffffffffffffffffffffffffffffff1681526020019081526020015f20819055506103d7673490e2a1db55c5d060c01b610bed565b6103eb6771ef5b5601a825b260c01b610bed565b8273ffffffffffffffffffffffffffffffffffffffff163373ffffffffffffffffffffffffffffffffffffffff167f8c5be1e5ebec7d5bd14f71427d1e84f3dd0314c0f7b2291e5b200ac8c7c3b9258460405161044891906110ba565b60405180910390a3610464676efd4d24c0a90ad560c01b610bed565b61047867780c674547559ad960c01b610bed565b6001905092915050565b5f61049767eaeb5c043e23ba9860c01b610bed565b6104ab6704688432f86c344d60c01b610bed565b6104bf67018772c891d36aa560c01b610bed565b600154905090565b5f8054906101000a900460ff1681565b5f6104ec670384014889fbae0560c01b610bed565b610500675a31a4e3fbf0b94f60c01b610bed565b610514674b1655e2b5898a2f60c01b610bed565b5f60019054906101000a900460ff166105575761053b67d86d93344f8a57e360c01b610bed565b61054f679e240b870db7ba9d60c01b610bed565b5f905061079f565b61056b677f98aaad8b15f3ba60c01b610bed565b61057f672adb7dd5681e6d7260c01b610bed565b61059367bdcec4674f2c1c8c60c01b610bed565b5f60035f8673ffffffffffffffffffffffffffffffffffffffff1673ffffffffffffffffffffffffffffffffffffffff1681526020019081526020015f205f3373ffffffffffffffffffffffffffffffffffffffff1673ffffffffffffffffffffffffffffffffffffffff1681526020019081526020015f20549050610623678f0af7d1a11eb3a660c01b610bed565b610637677ea93e4e3c6c892260c01b610bed565b61064b67b9793b4ab6ddd6bd60c01b610bed565b8281101561068e576040517f08c379a00000000000000000000000000000000000000000000000000000000081526004016106859061125f565b60405180910390fd5b6106a26744a10e75e809d04860c01b610bed565b6106b667548d170527a980cb60c01b610bed565b82816106c291906112aa565b60035f8773ffffffffffffffffffffffffffffffffffffffff1673ffffffffffffffffffffffffffffffffffffffff1681526020019081526020015f205f3373ffffffffffffffffffffffffffffffffffffffff1673ffffffffffffffffffffffffffffffffffffffff1681526020019081526020015f20819055506107526757d813044070498760c01b610bed565b610766674f099306808b77f260c01b610bed565b610771858585610bf0565b61078567b2135ccece6b668c60c01b610bed565b610799679a71e354da552aaf60c01b610bed565b60019150505b9392505050565b5f60019054906101000a900460ff1681565b601281565b6107d167e50e9a4aade7f21d60c01b610bed565b6107e567e9aba3cb51afbc1a60c01b610bed565b8060015f8282546107f691906112dd565b92505081905550610811677a22b9d54dd4a96160c01b610bed565b8060025f8473ffffffffffffffffffffffffffffffffffffffff1673ffffffffffffffffffffffffffffffffffffffff1681526020019081526020015f205f82825461085d91906112dd565b9250508190555061087867161385ee27f4919560c01b610bed565b61088c6707390a8c4f0c59c960c01b610bed565b8173ffffffffffffffffffffffffffffffffffffffff165f73ffffffffffffffffffffffffffffffffffffffff167fddf252ad1be2c89b69c2b068fc378daa952ba7f163c4a11628f55a4df523b3ef836040516108e991906110ba565b60405180910390a35050565b610909679c4833aa728260eb60c01b610bed565b61091d670cd10fdb076df10e60c01b610bed565b805f60016101000a81548160ff02191690831515021790555050565b5f61094e67117b2630347ff86c60c01b610bed565b61096267cf4c3e4c5957437b60c01b610bed565b6109766775572d2c2605b42760c01b610bed565b60025f8373ffffffffffffffffffffffffffffffffffffffff1673ffffffffffffffffffffffffffffffffffffffff1681526020019081526020015f20549050919050565b6040518060400160405280600681526020017f6d4a50594343000000000000000000000000000000000000000000000000000081525081565b5f610a0967832021759b85b07560c01b610bed565b610a1d671b5d528007f64e0a60c01b610bed565b610a3167f077f3ab89ed85da60c01b610bed565b5f8054906101000a900460ff16610a7257610a5667cd6755680aaaf50260c01b610bed565b610a6a67c7afdad12e30e5bb60c01b610bed565b5f9050610ae6565b610a86670c4931196360d29960c01b610bed565b610a9a6712a386202a2b32d060c01b610bed565b610aae6797480d12d92a757360c01b610bed565b610ab9338484610bf0565b610acd67dfb38cbe1545a23c60c01b610bed565b610ae167c7ee26dc4bb0feba60c01b610bed565b600190505b92915050565b5f610b01675377a8200976ddce60c01b610bed565b610b1567d0c62e36a70e03c360c01b610bed565b610b2967dc4e6597b81f9f3460c01b610bed565b60035f8473ffffffffffffffffffffffffffffffffffffffff1673ffffffffffffffffffffffffffffffffffffffff1681526020019081526020015f205f8373ffffffffffffffffffffffffffffffffffffffff1673ffffffffffffffffffffffffffffffffffffffff1681526020019081526020015f2054905092915050565b610bbe678eb3e10c5e31984f60c01b610bed565b610bd26792aeeba96d2c4dfc60c01b610bed565b805f806101000a81548160ff02191690831515021790555050565b50565b610c04672977d9cbd4788a7d60c01b610bed565b610c1867f2116b3feef1fac660c01b610bed565b610c2c670ef454bbf481f85960c01b610bed565b610c4067c8140c2a237ffa6660c01b610bed565b5f73ffffffffffffffffffffffffffffffffffffffff168273ffffffffffffffffffffffffffffffffffffffff1603610cae576040517f08c379a0000000000000000000000000000000000000000000000000000000008152600401610ca59061135a565b60405180910390fd5b610cc267d5ef79c27b59bda860c01b610bed565b610cd6673de8cdca8dce6b0960c01b610bed565b610cea67d4eacd0369c40ac060c01b610bed565b5f60025f8573ffffffffffffffffffffffffffffffffffffffff1673ffffffffffffffffffffffffffffffffffffffff1681526020019081526020015f20549050610d3f672f8a0ba649fff61560c01b610bed565b610d53678a354ca529d2c8d160c01b610bed565b610d6767df1a8313b4d96cc360c01b610bed565b81811015610daa576040517f08c379a0000000000000000000000000000000000000000000000000000000008152600401610da1906113c2565b60405180910390fd5b610dbe67eb2f98e7d8482a0960c01b610bed565b610dd26733a27cb276bea9c260c01b610bed565b8181610dde91906112aa565b60025f8673ffffffffffffffffffffffffffffffffffffffff1673ffffffffffffffffffffffffffffffffffffffff1681526020019081526020015f2081905550610e3367ce394d89b93d3aec60c01b610bed565b8160025f8573ffffffffffffffffffffffffffffffffffffffff1673ffffffffffffffffffffffffffffffffffffffff1681526020019081526020015f205f828254610e7f91906112dd565b92505081905550610e9a67300c3739cd25012660c01b610bed565b610eae676d17b39886b77b2460c01b610bed565b8273ffffffffffffffffffffffffffffffffffffffff168473ffffffffffffffffffffffffffffffffffffffff167fddf252ad1be2c89b69c2b068fc378daa952ba7f163c4a11628f55a4df523b3ef84604051610f0b91906110ba565b60405180910390a350505050565b5f81519050919050565b5f82825260208201905092915050565b8281835e5f83830152505050565b5f601f19601f8301169050919050565b5f610f5b82610f19565b610f658185610f23565b9350610f75818560208601610f33565b610f7e81610f41565b840191505092915050565b5f6020820190508181035f830152610fa18184610f51565b905092915050565b5f80fd5b5f73ffffffffffffffffffffffffffffffffffffffff82169050919050565b5f610fd682610fad565b9050919050565b610fe681610fcc565b8114610ff0575f80fd5b50565b5f8135905061100181610fdd565b92915050565b5f819050919050565b61101981611007565b8114611023575f80fd5b50565b5f8135905061103481611010565b92915050565b5f80604083850312156110505761104f610fa9565b5b5f61105d85828601610ff3565b925050602061106e85828601611026565b9150509250929050565b5f8115159050919050565b61108c81611078565b82525050565b5f6020820190506110a55f830184611083565b92915050565b6110b481611007565b82525050565b5f6020820190506110cd5f8301846110ab565b92915050565b5f805f606084860312156110ea576110e9610fa9565b5b5f6110f786828701610ff3565b935050602061110886828701610ff3565b925050604061111986828701611026565b9150509250925092565b5f60ff82169050919050565b61113881611123565b82525050565b5f6020820190506111515f83018461112f565b92915050565b61116081611078565b811461116a575f80fd5b50565b5f8135905061117b81611157565b92915050565b5f6020828403121561119657611195610fa9565b5b5f6111a38482850161116d565b91505092915050565b5f602082840312156111c1576111c0610fa9565b5b5f6111ce84828501610ff3565b91505092915050565b5f80604083850312156111ed576111ec610fa9565b5b5f6111fa85828601610ff3565b925050602061120b85828601610ff3565b9150509250929050565b7f616c6c6f77616e636500000000000000000000000000000000000000000000005f82015250565b5f611249600983610f23565b915061125482611215565b602082019050919050565b5f6020820190508181035f8301526112768161123d565b9050919050565b7f4e487b71000000000000000000000000000000000000000000000000000000005f52601160045260245ffd5b5f6112b482611007565b91506112bf83611007565b92508282039050818111156112d7576112d661127d565b5b92915050565b5f6112e782611007565b91506112f283611007565b925082820190508082111561130a5761130961127d565b5b92915050565b7f746f3d30000000000000000000000000000000000000000000000000000000005f82015250565b5f611344600483610f23565b915061134f82611310565b602082019050919050565b5f6020820190508181035f83015261137181611338565b9050919050565b7f62616c616e6365000000000000000000000000000000000000000000000000005f82015250565b5f6113ac600783610f23565b91506113b782611378565b602082019050919050565b5f6020820190508181035f8301526113d9816113a0565b905091905056fea26469706673582212201bfd1063972262dca87667d4941959c159b7154489562f1b8a12d66f75037cd264736f6c634300081a0033","opcodes":"PUSH1 0x80 PUSH1 0x40 MSTORE PUSH1 0x1 PUSH0 DUP1 PUSH2 0x100 EXP DUP2 SLOAD DUP2 PUSH1 0xFF MUL NOT AND SWAP1 DUP4 ISZERO ISZERO MUL OR SWAP1 SSTORE POP PUSH1 0x1 PUSH0 PUSH1 0x1 PUSH2 0x100 EXP DUP2 SLOAD DUP2 PUSH1 0xFF MUL NOT AND SWAP1 DUP4 ISZERO ISZERO MUL OR SWAP1 SSTORE POP CALLVALUE DUP1 ISZERO PUSH1 0x41 JUMPI PUSH0 DUP1 REVERT JUMPDEST POP PUSH2 0x1416 DUP1 PUSH2 0x4F PUSH0 CODECOPY PUSH0 RETURN INVALID PUSH1 0x80 PUSH1 0x40 MSTORE CALLVALUE DUP1 ISZERO PUSH2 0xF JUMPI PUSH0 DUP1 REVERT JUMPDEST POP PUSH1 0x4 CALLDATASIZE LT PUSH2 0xE8 JUMPI PUSH0 CALLDATALOAD PUSH1 0xE0 SHR DUP1 PUSH4 0x40C10F19 GT PUSH2 0x8A JUMPI DUP1 PUSH4 0x95D89B41 GT PUSH2 0x64 JUMPI DUP1 PUSH4 0x95D89B41 EQ PUSH2 0x24A JUMPI DUP1 PUSH4 0xA9059CBB EQ PUSH2 0x268 JUMPI DUP1 PUSH4 0xDD62ED3E EQ PUSH2 0x298 JUMPI DUP1 PUSH4 0xF383B650 EQ PUSH2 0x2C8 JUMPI PUSH2 0xE8 JUMP JUMPDEST DUP1 PUSH4 0x40C10F19 EQ PUSH2 0x1E2 JUMPI DUP1 PUSH4 0x6CC829C2 EQ PUSH2 0x1FE JUMPI DUP1 PUSH4 0x70A08231 EQ PUSH2 0x21A JUMPI PUSH2 0xE8 JUMP JUMPDEST DUP1 PUSH4 0x238E9A65 GT PUSH2 0xC6 JUMPI DUP1 PUSH4 0x238E9A65 EQ PUSH2 0x158 JUMPI DUP1 PUSH4 0x23B872DD EQ PUSH2 0x176 JUMPI DUP1 PUSH4 0x253AF1DE EQ PUSH2 0x1A6 JUMPI DUP1 PUSH4 0x313CE567 EQ PUSH2 0x1C4 JUMPI PUSH2 0xE8 JUMP JUMPDEST DUP1 PUSH4 0x6FDDE03 EQ PUSH2 0xEC JUMPI DUP1 PUSH4 0x95EA7B3 EQ PUSH2 0x10A JUMPI DUP1 PUSH4 0x18160DDD EQ PUSH2 0x13A JUMPI JUMPDEST PUSH0 DUP1 REVERT JUMPDEST PUSH2 0xF4 PUSH2 0x2E4 JUMP JUMPDEST PUSH1 0x40 MLOAD PUSH2 0x101 SWAP2 SWAP1 PUSH2 0xF89 JUMP JUMPDEST PUSH1 0x40 MLOAD DUP1 SWAP2 SUB SWAP1 RETURN JUMPDEST PUSH2 0x124 PUSH1 0x4 DUP1 CALLDATASIZE SUB DUP2 ADD SWAP1 PUSH2 0x11F SWAP2 SWAP1 PUSH2 0x103A JUMP JUMPDEST PUSH2 0x31D JUMP JUMPDEST PUSH1 0x40 MLOAD PUSH2 0x131 SWAP2 SWAP1 PUSH2 0x1092 JUMP JUMPDEST PUSH1 0x40 MLOAD DUP1 SWAP2 SUB SWAP1 RETURN JUMPDEST PUSH2 0x142 PUSH2 0x482 JUMP JUMPDEST PUSH1 0x40 MLOAD PUSH2 0x14F SWAP2 SWAP1 PUSH2 0x10BA JUMP JUMPDEST PUSH1 0x40 MLOAD DUP1 SWAP2 SUB SWAP1 RETURN JUMPDEST PUSH2 0x160 PUSH2 0x4C7 JUMP JUMPDEST PUSH1 0x40 MLOAD PUSH2 0x16D SWAP2 SWAP1 PUSH2 0x1092 JUMP JUMPDEST PUSH1 0x40 MLOAD DUP1 SWAP2 SUB SWAP1 RETURN JUMPDEST PUSH2 0x190 PUSH1 0x4 DUP1 CALLDATASIZE SUB DUP2 ADD SWAP1 PUSH2 0x18B SWAP2 SWAP1 PUSH2 0x10D3 JUMP JUMPDEST PUSH2 0x4D7 JUMP JUMPDEST PUSH1 0x40 MLOAD PUSH2 0x19D SWAP2 SWAP1 PUSH2 0x1092 JUMP JUMPDEST PUSH1 0x40 MLOAD DUP1 SWAP2 SUB SWAP1 RETURN JUMPDEST PUSH2 0x1AE PUSH2 0x7A6 JUMP JUMPDEST PUSH1 0x40 MLOAD PUSH2 0x1BB SWAP2 SWAP1 PUSH2 0x1092 JUMP JUMPDEST PUSH1 0x40 MLOAD DUP1 SWAP2 SUB SWAP1 RETURN JUMPDEST PUSH2 0x1CC PUSH2 0x7B8 JUMP JUMPDEST PUSH1 0x40 MLOAD PUSH2 0x1D9 SWAP2 SWAP1 PUSH2 0x113E JUMP JUMPDEST PUSH1 0x40 MLOAD DUP1 SWAP2 SUB SWAP1 RETURN JUMPDEST PUSH2 0x1FC PUSH1 0x4 DUP1 CALLDATASIZE SUB DUP2 ADD SWAP1 PUSH2 0x1F7 SWAP2 SWAP1 PUSH2 0x103A JUMP JUMPDEST PUSH2 0x7BD JUMP JUMPDEST STOP JUMPDEST PUSH2 0x218 PUSH1 0x4 DUP1 CALLDATASIZE SUB DUP2 ADD SWAP1 PUSH2 0x213 SWAP2 SWAP1 PUSH2 0x1181 JUMP JUMPDEST PUSH2 0x8F5 JUMP JUMPDEST STOP JUMPDEST PUSH2 0x234 PUSH1 0x4 DUP1 CALLDATASIZE SUB DUP2 ADD SWAP1 PUSH2 0x22F SWAP2 SWAP1 PUSH2 0x11AC JUMP JUMPDEST PUSH2 0x939 JUMP JUMPDEST PUSH1 0x40 MLOAD PUSH2 0x241 SWAP2 SWAP1 PUSH2 0x10BA JUMP JUMPDEST PUSH1 0x40 MLOAD DUP1 SWAP2 SUB SWAP1 RETURN JUMPDEST PUSH2 0x252 PUSH2 0x9BB JUMP JUMPDEST PUSH1 0x40 MLOAD PUSH2 0x25F SWAP2 SWAP1 PUSH2 0xF89 JUMP JUMPDEST PUSH1 0x40 MLOAD DUP1 SWAP2 SUB SWAP1 RETURN JUMPDEST PUSH2 0x282 PUSH1 0x4 DUP1 CALLDATASIZE SUB DUP2 ADD SWAP1 PUSH2 0x27D SWAP2 SWAP1 PUSH2 0x103A JUMP JUMPDEST PUSH2 0x9F4 JUMP JUMPDEST PUSH1 0x40 MLOAD PUSH2 0x28F SWAP2 SWAP1 PUSH2 0x1092 JUMP JUMPDEST PUSH1 0x40 MLOAD DUP1 SWAP2 SUB SWAP1 RETURN JUMPDEST PUSH2 0x2B2 PUSH1 0x4 DUP1 CALLDATASIZE SUB DUP2 ADD SWAP1 PUSH2 0x2AD SWAP2 SWAP1 PUSH2 0x11D7 JUMP JUMPDEST PUSH2 0xAEC JUMP JUMPDEST PUSH1 0x40 MLOAD PUSH2 0x2BF SWAP2 SWAP1 PUSH2 0x10BA JUMP JUMPDEST PUSH1 0x40 MLOAD DUP1 SWAP2 SUB SWAP1 RETURN JUMPDEST PUSH2 0x2E2 PUSH1 0x4 DUP1 CALLDATASIZE SUB DUP2 ADD SWAP1 PUSH2 0x2DD SWAP2 SWAP1 PUSH2 0x1181 JUMP JUMPDEST PUSH2 0xBAA JUMP JUMPDEST STOP JUMPDEST PUSH1 0x40 MLOAD DUP1 PUSH1 0x40 ADD PUSH1 0x40 MSTORE DUP1 PUSH1 0x10 DUP2 MSTORE PUSH1 0x20 ADD PUSH32 0x4D6F636B204A50594320436F6E66696700000000000000000000000000000000 DUP2 MSTORE POP DUP2 JUMP JUMPDEST PUSH0 PUSH2 0x332 PUSH8 0xC1B47FE43A52156E PUSH1 0xC0 SHL PUSH2 0xBED JUMP JUMPDEST PUSH2 0x346 PUSH8 0xBF5034D12BDFE1E7 PUSH1 0xC0 SHL PUSH2 0xBED JUMP JUMPDEST DUP2 PUSH1 0x3 PUSH0 CALLER PUSH20 0xFFFFFFFFFFFFFFFFFFFFFFFFFFFFFFFFFFFFFFFF AND PUSH20 0xFFFFFFFFFFFFFFFFFFFFFFFFFFFFFFFFFFFFFFFF AND DUP2 MSTORE PUSH1 0x20 ADD SWAP1 DUP2 MSTORE PUSH1 0x20 ADD PUSH0 KECCAK256 PUSH0 DUP6 PUSH20 0xFFFFFFFFFFFFFFFFFFFFFFFFFFFFFFFFFFFFFFFF AND PUSH20 0xFFFFFFFFFFFFFFFFFFFFFFFFFFFFFFFFFFFFFFFF AND DUP2 MSTORE PUSH1 0x20 ADD SWAP1 DUP2 MSTORE PUSH1 0x20 ADD PUSH0 KECCAK256 DUP2 SWAP1 SSTORE POP PUSH2 0x3D7 PUSH8 0x3490E2A1DB55C5D0 PUSH1 0xC0 SHL PUSH2 0xBED JUMP JUMPDEST PUSH2 0x3EB PUSH8 0x71EF5B5601A825B2 PUSH1 0xC0 SHL PUSH2 0xBED JUMP JUMPDEST DUP3 PUSH20 0xFFFFFFFFFFFFFFFFFFFFFFFFFFFFFFFFFFFFFFFF AND CALLER PUSH20 0xFFFFFFFFFFFFFFFFFFFFFFFFFFFFFFFFFFFFFFFF AND PUSH32 0x8C5BE1E5EBEC7D5BD14F71427D1E84F3DD0314C0F7B2291E5B200AC8C7C3B925 DUP5 PUSH1 0x40 MLOAD PUSH2 0x448 SWAP2 SWAP1 PUSH2 0x10BA JUMP JUMPDEST PUSH1 0x40 MLOAD DUP1 SWAP2 SUB SWAP1 LOG3 PUSH2 0x464 PUSH8 0x6EFD4D24C0A90AD5 PUSH1 0xC0 SHL PUSH2 0xBED JUMP JUMPDEST PUSH2 0x478 PUSH8 0x780C674547559AD9 PUSH1 0xC0 SHL PUSH2 0xBED JUMP JUMPDEST PUSH1 0x1 SWAP1 POP SWAP3 SWAP2 POP POP JUMP JUMPDEST PUSH0 PUSH2 0x497 PUSH8 0xEAEB5C043E23BA98 PUSH1 0xC0 SHL PUSH2 0xBED JUMP JUMPDEST PUSH2 0x4AB PUSH8 0x4688432F86C344D PUSH1 0xC0 SHL PUSH2 0xBED JUMP JUMPDEST PUSH2 0x4BF PUSH8 0x18772C891D36AA5 PUSH1 0xC0 SHL PUSH2 0xBED JUMP JUMPDEST PUSH1 0x1 SLOAD SWAP1 POP SWAP1 JUMP JUMPDEST PUSH0 DUP1 SLOAD SWAP1 PUSH2 0x100 EXP SWAP1 DIV PUSH1 0xFF AND DUP2 JUMP JUMPDEST PUSH0 PUSH2 0x4EC PUSH8 0x384014889FBAE05 PUSH1 0xC0 SHL PUSH2 0xBED JUMP JUMPDEST PUSH2 0x500 PUSH8 0x5A31A4E3FBF0B94F PUSH1 0xC0 SHL PUSH2 0xBED JUMP JUMPDEST PUSH2 0x514 PUSH8 0x4B1655E2B5898A2F PUSH1 0xC0 SHL PUSH2 0xBED JUMP JUMPDEST PUSH0 PUSH1 0x1 SWAP1 SLOAD SWAP1 PUSH2 0x100 EXP SWAP1 DIV PUSH1 0xFF AND PUSH2 0x557 JUMPI PUSH2 0x53B PUSH8 0xD86D93344F8A57E3 PUSH1 0xC0 SHL PUSH2 0xBED JUMP JUMPDEST PUSH2 0x54F PUSH8 0x9E240B870DB7BA9D PUSH1 0xC0 SHL PUSH2 0xBED JUMP JUMPDEST PUSH0 SWAP1 POP PUSH2 0x79F JUMP JUMPDEST PUSH2 0x56B PUSH8 0x7F98AAAD8B15F3BA PUSH1 0xC0 SHL PUSH2 0xBED JUMP JUMPDEST PUSH2 0x57F PUSH8 0x2ADB7DD5681E6D72 PUSH1 0xC0 SHL PUSH2 0xBED JUMP JUMPDEST PUSH2 0x593 PUSH8 0xBDCEC4674F2C1C8C PUSH1 0xC0 SHL PUSH2 0xBED JUMP JUMPDEST PUSH0 PUSH1 0x3 PUSH0 DUP7 PUSH20 0xFFFFFFFFFFFFFFFFFFFFFFFFFFFFFFFFFFFFFFFF AND PUSH20 0xFFFFFFFFFFFFFFFFFFFFFFFFFFFFFFFFFFFFFFFF AND DUP2 MSTORE PUSH1 0x20 ADD SWAP1 DUP2 MSTORE PUSH1 0x20 ADD PUSH0 KECCAK256 PUSH0 CALLER PUSH20 0xFFFFFFFFFFFFFFFFFFFFFFFFFFFFFFFFFFFFFFFF AND PUSH20 0xFFFFFFFFFFFFFFFFFFFFFFFFFFFFFFFFFFFFFFFF AND DUP2 MSTORE PUSH1 0x20 ADD SWAP1 DUP2 MSTORE PUSH1 0x20 ADD PUSH0 KECCAK256 SLOAD SWAP1 POP PUSH2 0x623 PUSH8 0x8F0AF7D1A11EB3A6 PUSH1 0xC0 SHL PUSH2 0xBED JUMP JUMPDEST PUSH2 0x637 PUSH8 0x7EA93E4E3C6C8922 PUSH1 0xC0 SHL PUSH2 0xBED JUMP JUMPDEST PUSH2 0x64B PUSH8 0xB9793B4AB6DDD6BD PUSH1 0xC0 SHL PUSH2 0xBED JUMP JUMPDEST DUP3 DUP2 LT ISZERO PUSH2 0x68E JUMPI PUSH1 0x40 MLOAD PUSH32 0x8C379A000000000000000000000000000000000000000000000000000000000 DUP2 MSTORE PUSH1 0x4 ADD PUSH2 0x685 SWAP1 PUSH2 0x125F JUMP JUMPDEST PUSH1 0x40 MLOAD DUP1 SWAP2 SUB SWAP1 REVERT JUMPDEST PUSH2 0x6A2 PUSH8 0x44A10E75E809D048 PUSH1 0xC0 SHL PUSH2 0xBED JUMP JUMPDEST PUSH2 0x6B6 PUSH8 0x548D170527A980CB PUSH1 0xC0 SHL PUSH2 0xBED JUMP JUMPDEST DUP3 DUP2 PUSH2 0x6C2 SWAP2 SWAP1 PUSH2 0x12AA JUMP JUMPDEST PUSH1 0x3 PUSH0 DUP8 PUSH20 0xFFFFFFFFFFFFFFFFFFFFFFFFFFFFFFFFFFFFFFFF AND PUSH20 0xFFFFFFFFFFFFFFFFFFFFFFFFFFFFFFFFFFFFFFFF AND DUP2 MSTORE PUSH1 0x20 ADD SWAP1 DUP2 MSTORE PUSH1 0x20 ADD PUSH0 KECCAK256 PUSH0 CALLER PUSH20 0xFFFFFFFFFFFFFFFFFFFFFFFFFFFFFFFFFFFFFFFF AND PUSH20 0xFFFFFFFFFFFFFFFFFFFFFFFFFFFFFFFFFFFFFFFF AND DUP2 MSTORE PUSH1 0x20 ADD SWAP1 DUP2 MSTORE PUSH1 0x20 ADD PUSH0 KECCAK256 DUP2 SWAP1 SSTORE POP PUSH2 0x752 PUSH8 0x57D8130440704987 PUSH1 0xC0 SHL PUSH2 0xBED JUMP JUMPDEST PUSH2 0x766 PUSH8 0x4F099306808B77F2 PUSH1 0xC0 SHL PUSH2 0xBED JUMP JUMPDEST PUSH2 0x771 DUP6 DUP6 DUP6 PUSH2 0xBF0 JUMP JUMPDEST PUSH2 0x785 PUSH8 0xB2135CCECE6B668C PUSH1 0xC0 SHL PUSH2 0xBED JUMP JUMPDEST PUSH2 0x799 PUSH8 0x9A71E354DA552AAF PUSH1 0xC0 SHL PUSH2 0xBED JUMP JUMPDEST PUSH1 0x1 SWAP2 POP POP JUMPDEST SWAP4 SWAP3 POP POP POP JUMP JUMPDEST PUSH0 PUSH1 0x1 SWAP1 SLOAD SWAP1 PUSH2 0x100 EXP SWAP1 DIV PUSH1 0xFF AND DUP2 JUMP JUMPDEST PUSH1 0x12 DUP2 JUMP JUMPDEST PUSH2 0x7D1 PUSH8 0xE50E9A4AADE7F21D PUSH1 0xC0 SHL PUSH2 0xBED JUMP JUMPDEST PUSH2 0x7E5 PUSH8 0xE9ABA3CB51AFBC1A PUSH1 0xC0 SHL PUSH2 0xBED JUMP JUMPDEST DUP1 PUSH1 0x1 PUSH0 DUP3 DUP3 SLOAD PUSH2 0x7F6 SWAP2 SWAP1 PUSH2 0x12DD JUMP JUMPDEST SWAP3 POP POP DUP2 SWAP1 SSTORE POP PUSH2 0x811 PUSH8 0x7A22B9D54DD4A961 PUSH1 0xC0 SHL PUSH2 0xBED JUMP JUMPDEST DUP1 PUSH1 0x2 PUSH0 DUP5 PUSH20 0xFFFFFFFFFFFFFFFFFFFFFFFFFFFFFFFFFFFFFFFF AND PUSH20 0xFFFFFFFFFFFFFFFFFFFFFFFFFFFFFFFFFFFFFFFF AND DUP2 MSTORE PUSH1 0x20 ADD SWAP1 DUP2 MSTORE PUSH1 0x20 ADD PUSH0 KECCAK256 PUSH0 DUP3 DUP3 SLOAD PUSH2 0x85D SWAP2 SWAP1 PUSH2 0x12DD JUMP JUMPDEST SWAP3 POP POP DUP2 SWAP1 SSTORE POP PUSH2 0x878 PUSH8 0x161385EE27F49195 PUSH1 0xC0 SHL PUSH2 0xBED JUMP JUMPDEST PUSH2 0x88C PUSH8 0x7390A8C4F0C59C9 PUSH1 0xC0 SHL PUSH2 0xBED JUMP JUMPDEST DUP2 PUSH20 0xFFFFFFFFFFFFFFFFFFFFFFFFFFFFFFFFFFFFFFFF AND PUSH0 PUSH20 0xFFFFFFFFFFFFFFFFFFFFFFFFFFFFFFFFFFFFFFFF AND PUSH32 0xDDF252AD1BE2C89B69C2B068FC378DAA952BA7F163C4A11628F55A4DF523B3EF DUP4 PUSH1 0x40 MLOAD PUSH2 0x8E9 SWAP2 SWAP1 PUSH2 0x10BA JUMP JUMPDEST PUSH1 0x40 MLOAD DUP1 SWAP2 SUB SWAP1 LOG3 POP POP JUMP JUMPDEST PUSH2 0x909 PUSH8 0x9C4833AA728260EB PUSH1 0xC0 SHL PUSH2 0xBED JUMP JUMPDEST PUSH2 0x91D PUSH8 0xCD10FDB076DF10E PUSH1 0xC0 SHL PUSH2 0xBED JUMP JUMPDEST DUP1 PUSH0 PUSH1 0x1 PUSH2 0x100 EXP DUP2 SLOAD DUP2 PUSH1 0xFF MUL NOT AND SWAP1 DUP4 ISZERO ISZERO MUL OR SWAP1 SSTORE POP POP JUMP JUMPDEST PUSH0 PUSH2 0x94E PUSH8 0x117B2630347FF86C PUSH1 0xC0 SHL PUSH2 0xBED JUMP JUMPDEST PUSH2 0x962 PUSH8 0xCF4C3E4C5957437B PUSH1 0xC0 SHL PUSH2 0xBED JUMP JUMPDEST PUSH2 0x976 PUSH8 0x75572D2C2605B427 PUSH1 0xC0 SHL PUSH2 0xBED JUMP JUMPDEST PUSH1 0x2 PUSH0 DUP4 PUSH20 0xFFFFFFFFFFFFFFFFFFFFFFFFFFFFFFFFFFFFFFFF AND PUSH20 0xFFFFFFFFFFFFFFFFFFFFFFFFFFFFFFFFFFFFFFFF AND DUP2 MSTORE PUSH1 0x20 ADD SWAP1 DUP2 MSTORE PUSH1 0x20 ADD PUSH0 KECCAK256 SLOAD SWAP1 POP SWAP2 SWAP1 POP JUMP JUMPDEST PUSH1 0x40 MLOAD DUP1 PUSH1 0x40 ADD PUSH1 0x40 MSTORE DUP1 PUSH1 0x6 DUP2 MSTORE PUSH1 0x20 ADD PUSH32 0x6D4A505943430000000000000000000000000000000000000000000000000000 DUP2 MSTORE POP DUP2 JUMP JUMPDEST PUSH0 PUSH2 0xA09 PUSH8 0x832021759B85B075 PUSH1 0xC0 SHL PUSH2 0xBED JUMP JUMPDEST PUSH2 0xA1D PUSH8 0x1B5D528007F64E0A PUSH1 0xC0 SHL PUSH2 0xBED JUMP JUMPDEST PUSH2 0xA31 PUSH8 0xF077F3AB89ED85DA PUSH1 0xC0 SHL PUSH2 0xBED JUMP JUMPDEST PUSH0 DUP1 SLOAD SWAP1 PUSH2 0x100 EXP SWAP1 DIV PUSH1 0xFF AND PUSH2 0xA72 JUMPI PUSH2 0xA56 PUSH8 0xCD6755680AAAF502 PUSH1 0xC0 SHL PUSH2 0xBED JUMP JUMPDEST PUSH2 0xA6A PUSH8 0xC7AFDAD12E30E5BB PUSH1 0xC0 SHL PUSH2 0xBED JUMP JUMPDEST PUSH0 SWAP1 POP PUSH2 0xAE6 JUMP JUMPDEST PUSH2 0xA86 PUSH8 0xC4931196360D299 PUSH1 0xC0 SHL PUSH2 0xBED JUMP JUMPDEST PUSH2 0xA9A PUSH8 0x12A386202A2B32D0 PUSH1 0xC0 SHL PUSH2 0xBED JUMP JUMPDEST PUSH2 0xAAE PUSH8 0x97480D12D92A7573 PUSH1 0xC0 SHL PUSH2 0xBED JUMP JUMPDEST PUSH2 0xAB9 CALLER DUP5 DUP5 PUSH2 0xBF0 JUMP JUMPDEST PUSH2 0xACD PUSH8 0xDFB38CBE1545A23C PUSH1 0xC0 SHL PUSH2 0xBED JUMP JUMPDEST PUSH2 0xAE1 PUSH8 0xC7EE26DC4BB0FEBA PUSH1 0xC0 SHL PUSH2 0xBED JUMP JUMPDEST PUSH1 0x1 SWAP1 POP JUMPDEST SWAP3 SWAP2 POP POP JUMP JUMPDEST PUSH0 PUSH2 0xB01 PUSH8 0x5377A8200976DDCE PUSH1 0xC0 SHL PUSH2 0xBED JUMP JUMPDEST PUSH2 0xB15 PUSH8 0xD0C62E36A70E03C3 PUSH1 0xC0 SHL PUSH2 0xBED JUMP JUMPDEST PUSH2 0xB29 PUSH8 0xDC4E6597B81F9F34 PUSH1 0xC0 SHL PUSH2 0xBED JUMP JUMPDEST PUSH1 0x3 PUSH0 DUP5 PUSH20 0xFFFFFFFFFFFFFFFFFFFFFFFFFFFFFFFFFFFFFFFF AND PUSH20 0xFFFFFFFFFFFFFFFFFFFFFFFFFFFFFFFFFFFFFFFF AND DUP2 MSTORE PUSH1 0x20 ADD SWAP1 DUP2 MSTORE PUSH1 0x20 ADD PUSH0 KECCAK256 PUSH0 DUP4 PUSH20 0xFFFFFFFFFFFFFFFFFFFFFFFFFFFFFFFFFFFFFFFF AND PUSH20 0xFFFFFFFFFFFFFFFFFFFFFFFFFFFFFFFFFFFFFFFF AND DUP2 MSTORE PUSH1 0x20 ADD SWAP1 DUP2 MSTORE PUSH1 0x20 ADD PUSH0 KECCAK256 SLOAD SWAP1 POP SWAP3 SWAP2 POP POP JUMP JUMPDEST PUSH2 0xBBE PUSH8 0x8EB3E10C5E31984F PUSH1 0xC0 SHL PUSH2 0xBED JUMP JUMPDEST PUSH2 0xBD2 PUSH8 0x92AEEBA96D2C4DFC PUSH1 0xC0 SHL PUSH2 0xBED JUMP JUMPDEST DUP1 PUSH0 DUP1 PUSH2 0x100 EXP DUP2 SLOAD DUP2 PUSH1 0xFF MUL NOT AND SWAP1 DUP4 ISZERO ISZERO MUL OR SWAP1 SSTORE POP POP JUMP JUMPDEST POP JUMP JUMPDEST PUSH2 0xC04 PUSH8 0x2977D9CBD4788A7D PUSH1 0xC0 SHL PUSH2 0xBED JUMP JUMPDEST PUSH2 0xC18 PUSH8 0xF2116B3FEEF1FAC6 PUSH1 0xC0 SHL PUSH2 0xBED JUMP JUMPDEST PUSH2 0xC2C PUSH8 0xEF454BBF481F859 PUSH1 0xC0 SHL PUSH2 0xBED JUMP JUMPDEST PUSH2 0xC40 PUSH8 0xC8140C2A237FFA66 PUSH1 0xC0 SHL PUSH2 0xBED JUMP JUMPDEST PUSH0 PUSH20 0xFFFFFFFFFFFFFFFFFFFFFFFFFFFFFFFFFFFFFFFF AND DUP3 PUSH20 0xFFFFFFFFFFFFFFFFFFFFFFFFFFFFFFFFFFFFFFFF AND SUB PUSH2 0xCAE JUMPI PUSH1 0x40 MLOAD PUSH32 0x8C379A000000000000000000000000000000000000000000000000000000000 DUP2 MSTORE PUSH1 0x4 ADD PUSH2 0xCA5 SWAP1 PUSH2 0x135A JUMP JUMPDEST PUSH1 0x40 MLOAD DUP1 SWAP2 SUB SWAP1 REVERT JUMPDEST PUSH2 0xCC2 PUSH8 0xD5EF79C27B59BDA8 PUSH1 0xC0 SHL PUSH2 0xBED JUMP JUMPDEST PUSH2 0xCD6 PUSH8 0x3DE8CDCA8DCE6B09 PUSH1 0xC0 SHL PUSH2 0xBED JUMP JUMPDEST PUSH2 0xCEA PUSH8 0xD4EACD0369C40AC0 PUSH1 0xC0 SHL PUSH2 0xBED JUMP JUMPDEST PUSH0 PUSH1 0x2 PUSH0 DUP6 PUSH20 0xFFFFFFFFFFFFFFFFFFFFFFFFFFFFFFFFFFFFFFFF AND PUSH20 0xFFFFFFFFFFFFFFFFFFFFFFFFFFFFFFFFFFFFFFFF AND DUP2 MSTORE PUSH1 0x20 ADD SWAP1 DUP2 MSTORE PUSH1 0x20 ADD PUSH0 KECCAK256 SLOAD SWAP1 POP PUSH2 0xD3F PUSH8 0x2F8A0BA649FFF615 PUSH1 0xC0 SHL PUSH2 0xBED JUMP JUMPDEST PUSH2 0xD53 PUSH8 0x8A354CA529D2C8D1 PUSH1 0xC0 SHL PUSH2 0xBED JUMP JUMPDEST PUSH2 0xD67 PUSH8 0xDF1A8313B4D96CC3 PUSH1 0xC0 SHL PUSH2 0xBED JUMP JUMPDEST DUP2 DUP2 LT ISZERO PUSH2 0xDAA JUMPI PUSH1 0x40 MLOAD PUSH32 0x8C379A000000000000000000000000000000000000000000000000000000000 DUP2 MSTORE PUSH1 0x4 ADD PUSH2 0xDA1 SWAP1 PUSH2 0x13C2 JUMP JUMPDEST PUSH1 0x40 MLOAD DUP1 SWAP2 SUB SWAP1 REVERT JUMPDEST PUSH2 0xDBE PUSH8 0xEB2F98E7D8482A09 PUSH1 0xC0 SHL PUSH2 0xBED JUMP JUMPDEST PUSH2 0xDD2 PUSH8 0x33A27CB276BEA9C2 PUSH1 0xC0 SHL PUSH2 0xBED JUMP JUMPDEST DUP2 DUP2 PUSH2 0xDDE SWAP2 SWAP1 PUSH2 0x12AA JUMP JUMPDEST PUSH1 0x2 PUSH0 DUP7 PUSH20 0xFFFFFFFFFFFFFFFFFFFFFFFFFFFFFFFFFFFFFFFF AND PUSH20 0xFFFFFFFFFFFFFFFFFFFFFFFFFFFFFFFFFFFFFFFF AND DUP2 MSTORE PUSH1 0x20 ADD SWAP1 DUP2 MSTORE PUSH1 0x20 ADD PUSH0 KECCAK256 DUP2 SWAP1 SSTORE POP PUSH2 0xE33 PUSH8 0xCE394D89B93D3AEC PUSH1 0xC0 SHL PUSH2 0xBED JUMP JUMPDEST DUP2 PUSH1 0x2 PUSH0 DUP6 PUSH20 0xFFFFFFFFFFFFFFFFFFFFFFFFFFFFFFFFFFFFFFFF AND PUSH20 0xFFFFFFFFFFFFFFFFFFFFFFFFFFFFFFFFFFFFFFFF AND DUP2 MSTORE PUSH1 0x20 ADD SWAP1 DUP2 MSTORE PUSH1 0x20 ADD PUSH0 KECCAK256 PUSH0 DUP3 DUP3 SLOAD PUSH2 0xE7F SWAP2 SWAP1 PUSH2 0x12DD JUMP JUMPDEST SWAP3 POP POP DUP2 SWAP1 SSTORE POP PUSH2 0xE9A PUSH8 0x300C3739CD250126 PUSH1 0xC0 SHL PUSH2 0xBED JUMP JUMPDEST PUSH2 0xEAE PUSH8 0x6D17B39886B77B24 PUSH1 0xC0 SHL PUSH2 0xBED JUMP JUMPDEST DUP3 PUSH20 0xFFFFFFFFFFFFFFFFFFFFFFFFFFFFFFFFFFFFFFFF AND DUP5 PUSH20 0xFFFFFFFFFFFFFFFFFFFFFFFFFFFFFFFFFFFFFFFF AND PUSH32 0xDDF252AD1BE2C89B69C2B068FC378DAA952BA7F163C4A11628F55A4DF523B3EF DUP5 PUSH1 0x40 MLOAD PUSH2 0xF0B SWAP2 SWAP1 PUSH2 0x10BA JUMP JUMPDEST PUSH1 0x40 MLOAD DUP1 SWAP2 SUB SWAP1 LOG3 POP POP POP POP JUMP JUMPDEST PUSH0 DUP2 MLOAD SWAP1 POP SWAP2 SWAP1 POP JUMP JUMPDEST PUSH0 DUP3 DUP3 MSTORE PUSH1 0x20 DUP3 ADD SWAP1 POP SWAP3 SWAP2 POP POP JUMP JUMPDEST DUP3 DUP2 DUP4 MCOPY PUSH0 DUP4 DUP4 ADD MSTORE POP POP POP JUMP JUMPDEST PUSH0 PUSH1 0x1F NOT PUSH1 0x1F DUP4 ADD AND SWAP1 POP SWAP2 SWAP1 POP JUMP JUMPDEST PUSH0 PUSH2 0xF5B DUP3 PUSH2 0xF19 JUMP JUMPDEST PUSH2 0xF65 DUP2 DUP6 PUSH2 0xF23 JUMP JUMPDEST SWAP4 POP PUSH2 0xF75 DUP2 DUP6 PUSH1 0x20 DUP7 ADD PUSH2 0xF33 JUMP JUMPDEST PUSH2 0xF7E DUP2 PUSH2 0xF41 JUMP JUMPDEST DUP5 ADD SWAP2 POP POP SWAP3 SWAP2 POP POP JUMP JUMPDEST PUSH0 PUSH1 0x20 DUP3 ADD SWAP1 POP DUP2 DUP2 SUB PUSH0 DUP4 ADD MSTORE PUSH2 0xFA1 DUP2 DUP5 PUSH2 0xF51 JUMP JUMPDEST SWAP1 POP SWAP3 SWAP2 POP POP JUMP JUMPDEST PUSH0 DUP1 REVERT JUMPDEST PUSH0 PUSH20 0xFFFFFFFFFFFFFFFFFFFFFFFFFFFFFFFFFFFFFFFF DUP3 AND SWAP1 POP SWAP2 SWAP1 POP JUMP JUMPDEST PUSH0 PUSH2 0xFD6 DUP3 PUSH2 0xFAD JUMP JUMPDEST SWAP1 POP SWAP2 SWAP1 POP JUMP JUMPDEST PUSH2 0xFE6 DUP2 PUSH2 0xFCC JUMP JUMPDEST DUP2 EQ PUSH2 0xFF0 JUMPI PUSH0 DUP1 REVERT JUMPDEST POP JUMP JUMPDEST PUSH0 DUP2 CALLDATALOAD SWAP1 POP PUSH2 0x1001 DUP2 PUSH2 0xFDD JUMP JUMPDEST SWAP3 SWAP2 POP POP JUMP JUMPDEST PUSH0 DUP2 SWAP1 POP SWAP2 SWAP1 POP JUMP JUMPDEST PUSH2 0x1019 DUP2 PUSH2 0x1007 JUMP JUMPDEST DUP2 EQ PUSH2 0x1023 JUMPI PUSH0 DUP1 REVERT JUMPDEST POP JUMP JUMPDEST PUSH0 DUP2 CALLDATALOAD SWAP1 POP PUSH2 0x1034 DUP2 PUSH2 0x1010 JUMP JUMPDEST SWAP3 SWAP2 POP POP JUMP JUMPDEST PUSH0 DUP1 PUSH1 0x40 DUP4 DUP6 SUB SLT ISZERO PUSH2 0x1050 JUMPI PUSH2 0x104F PUSH2 0xFA9 JUMP JUMPDEST JUMPDEST PUSH0 PUSH2 0x105D DUP6 DUP3 DUP7 ADD PUSH2 0xFF3 JUMP JUMPDEST SWAP3 POP POP PUSH1 0x20 PUSH2 0x106E DUP6 DUP3 DUP7 ADD PUSH2 0x1026 JUMP JUMPDEST SWAP2 POP POP SWAP3 POP SWAP3 SWAP1 POP JUMP JUMPDEST PUSH0 DUP2 ISZERO ISZERO SWAP1 POP SWAP2 SWAP1 POP JUMP JUMPDEST PUSH2 0x108C DUP2 PUSH2 0x1078 JUMP JUMPDEST DUP3 MSTORE POP POP JUMP JUMPDEST PUSH0 PUSH1 0x20 DUP3 ADD SWAP1 POP PUSH2 0x10A5 PUSH0 DUP4 ADD DUP5 PUSH2 0x1083 JUMP JUMPDEST SWAP3 SWAP2 POP POP JUMP JUMPDEST PUSH2 0x10B4 DUP2 PUSH2 0x1007 JUMP JUMPDEST DUP3 MSTORE POP POP JUMP JUMPDEST PUSH0 PUSH1 0x20 DUP3 ADD SWAP1 POP PUSH2 0x10CD PUSH0 DUP4 ADD DUP5 PUSH2 0x10AB JUMP JUMPDEST SWAP3 SWAP2 POP POP JUMP JUMPDEST PUSH0 DUP1 PUSH0 PUSH1 0x60 DUP5 DUP7 SUB SLT ISZERO PUSH2 0x10EA JUMPI PUSH2 0x10E9 PUSH2 0xFA9 JUMP JUMPDEST JUMPDEST PUSH0 PUSH2 0x10F7 DUP7 DUP3 DUP8 ADD PUSH2 0xFF3 JUMP JUMPDEST SWAP4 POP POP PUSH1 0x20 PUSH2 0x1108 DUP7 DUP3 DUP8 ADD PUSH2 0xFF3 JUMP JUMPDEST SWAP3 POP POP PUSH1 0x40 PUSH2 0x1119 DUP7 DUP3 DUP8 ADD PUSH2 0x1026 JUMP JUMPDEST SWAP2 POP POP SWAP3 POP SWAP3 POP SWAP3 JUMP JUMPDEST PUSH0 PUSH1 0xFF DUP3 AND SWAP1 POP SWAP2 SWAP1 POP JUMP JUMPDEST PUSH2 0x1138 DUP2 PUSH2 0x1123 JUMP JUMPDEST DUP3 MSTORE POP POP JUMP JUMPDEST PUSH0 PUSH1 0x20 DUP3 ADD SWAP1 POP PUSH2 0x1151 PUSH0 DUP4 ADD DUP5 PUSH2 0x112F JUMP JUMPDEST SWAP3 SWAP2 POP POP JUMP JUMPDEST PUSH2 0x1160 DUP2 PUSH2 0x1078 JUMP JUMPDEST DUP2 EQ PUSH2 0x116A JUMPI PUSH0 DUP1 REVERT JUMPDEST POP JUMP JUMPDEST PUSH0 DUP2 CALLDATALOAD SWAP1 POP PUSH2 0x117B DUP2 PUSH2 0x1157 JUMP JUMPDEST SWAP3 SWAP2 POP POP JUMP JUMPDEST PUSH0 PUSH1 0x20 DUP3 DUP5 SUB SLT ISZERO PUSH2 0x1196 JUMPI PUSH2 0x1195 PUSH2 0xFA9 JUMP JUMPDEST JUMPDEST PUSH0 PUSH2 0x11A3 DUP5 DUP3 DUP6 ADD PUSH2 0x116D JUMP JUMPDEST SWAP2 POP POP SWAP3 SWAP2 POP POP JUMP JUMPDEST PUSH0 PUSH1 0x20 DUP3 DUP5 SUB SLT ISZERO PUSH2 0x11C1 JUMPI PUSH2 0x11C0 PUSH2 0xFA9 JUMP JUMPDEST JUMPDEST PUSH0 PUSH2 0x11CE DUP5 DUP3 DUP6 ADD PUSH2 0xFF3 JUMP JUMPDEST SWAP2 POP POP SWAP3 SWAP2 POP POP JUMP JUMPDEST PUSH0 DUP1 PUSH1 0x40 DUP4 DUP6 SUB SLT ISZERO PUSH2 0x11ED JUMPI PUSH2 0x11EC PUSH2 0xFA9 JUMP JUMPDEST JUMPDEST PUSH0 PUSH2 0x11FA DUP6 DUP3 DUP7 ADD PUSH2 0xFF3 JUMP JUMPDEST SWAP3 POP POP PUSH1 0x20 PUSH2 0x120B DUP6 DUP3 DUP7 ADD PUSH2 0xFF3 JUMP JUMPDEST SWAP2 POP POP SWAP3 POP SWAP3 SWAP1 POP JUMP JUMPDEST PUSH32 0x616C6C6F77616E63650000000000000000000000000000000000000000000000 PUSH0 DUP3 ADD MSTORE POP JUMP JUMPDEST PUSH0 PUSH2 0x1249 PUSH1 0x9 DUP4 PUSH2 0xF23 JUMP JUMPDEST SWAP2 POP PUSH2 0x1254 DUP3 PUSH2 0x1215 JUMP JUMPDEST PUSH1 0x20 DUP3 ADD SWAP1 POP SWAP2 SWAP1 POP JUMP JUMPDEST PUSH0 PUSH1 0x20 DUP3 ADD SWAP1 POP DUP2 DUP2 SUB PUSH0 DUP4 ADD MSTORE PUSH2 0x1276 DUP2 PUSH2 0x123D JUMP JUMPDEST SWAP1 POP SWAP2 SWAP1 POP JUMP JUMPDEST PUSH32 0x4E487B7100000000000000000000000000000000000000000000000000000000 PUSH0 MSTORE PUSH1 0x11 PUSH1 0x4 MSTORE PUSH1 0x24 PUSH0 REVERT JUMPDEST PUSH0 PUSH2 0x12B4 DUP3 PUSH2 0x1007 JUMP JUMPDEST SWAP2 POP PUSH2 0x12BF DUP4 PUSH2 0x1007 JUMP JUMPDEST SWAP3 POP DUP3 DUP3 SUB SWAP1 POP DUP2 DUP2 GT ISZERO PUSH2 0x12D7 JUMPI PUSH2 0x12D6 PUSH2 0x127D JUMP JUMPDEST JUMPDEST SWAP3 SWAP2 POP POP JUMP JUMPDEST PUSH0 PUSH2 0x12E7 DUP3 PUSH2 0x1007 JUMP JUMPDEST SWAP2 POP PUSH2 0x12F2 DUP4 PUSH2 0x1007 JUMP JUMPDEST SWAP3 POP DUP3 DUP3 ADD SWAP1 POP DUP1 DUP3 GT ISZERO PUSH2 0x130A JUMPI PUSH2 0x1309 PUSH2 0x127D JUMP JUMPDEST JUMPDEST SWAP3 SWAP2 POP POP JUMP JUMPDEST PUSH32 0x746F3D3000000000000000000000000000000000000000000000000000000000 PUSH0 DUP3 ADD MSTORE POP JUMP JUMPDEST PUSH0 PUSH2 0x1344 PUSH1 0x4 DUP4 PUSH2 0xF23 JUMP JUMPDEST SWAP2 POP PUSH2 0x134F DUP3 PUSH2 0x1310 JUMP JUMPDEST PUSH1 0x20 DUP3 ADD SWAP1 POP SWAP2 SWAP1 POP JUMP JUMPDEST PUSH0 PUSH1 0x20 DUP3 ADD SWAP1 POP DUP2 DUP2 SUB PUSH0 DUP4 ADD MSTORE PUSH2 0x1371 DUP2 PUSH2 0x1338 JUMP JUMPDEST SWAP1 POP SWAP2 SWAP1 POP JUMP JUMPDEST PUSH32 0x62616C616E636500000000000000000000000000000000000000000000000000 PUSH0 DUP3 ADD MSTORE POP JUMP JUMPDEST PUSH0 PUSH2 0x13AC PUSH1 0x7 DUP4 PUSH2 0xF23 JUMP JUMPDEST SWAP2 POP PUSH2 0x13B7 DUP3 PUSH2 0x1378 JUMP JUMPDEST PUSH1 0x20 DUP3 ADD SWAP1 POP SWAP2 SWAP1 POP JUMP JUMPDEST PUSH0 PUSH1 0x20 DUP3 ADD SWAP1 POP DUP2 DUP2 SUB PUSH0 DUP4 ADD MSTORE PUSH2 0x13D9 DUP2 PUSH2 0x13A0 JUMP JUMPDEST SWAP1 POP SWAP2 SWAP1 POP JUMP INVALID LOG2 PUSH5 0x6970667358 0x22 SLT KECCAK256 SHL REVERT LT PUSH4 0x972262DC 0xA8 PUSH23 0x67D4941959C159B7154489562F1B8A12D66F75037CD264 PUSH20 0x6F6C634300081A00330000000000000000000000 "},"methodIdentifiers":{"allowance(address,address)":"dd62ed3e","approve(address,uint256)":"095ea7b3","balanceOf(address)":"70a08231","decimals()":"313ce567","mint(address,uint256)":"40c10f19","name()":"06fdde03","setTransferFromReturns(bool)":"6cc829c2","setTransferReturns(bool)":"f383b650","symbol()":"95d89b41","totalSupply()":"18160ddd","transfer(address,uint256)":"a9059cbb","transferFrom(address,address,uint256)":"23b872dd","transferFromReturns()":"253af1de","transferReturns()":"238e9a65"}}}}}